:100000000C9407020C9424020C9424020C942402F5
:100010000C9424020C9424020C9424020C942402C8
:100020000C9424020C9424020C949B1A0C946F1BC5
:100030000C94C8150C9424020C9424020C942402F1
:100040000C9424020C9424020C9424020C94240298
:100050000C9424020C944F160C9424020C94240249
:100060000C9424020C9424020C9424020C94240278
:100070000C9424020C9424020C9424020C94240268
:100080000C9424020C9424020C9424020C94240258
:100090000C9424020C9424020C9424020C94240248
:1000A0000C9424020C9424020C94240214001A00D0
:1000B0000800150017001C0018000C0012001300A7
:1000C0002A0004281624072209210A000B000D31FA
:1000D0000E320F243338C352E1001D001B0006000E
:1000E00019000500110010003400380028002B0012
:1000F0002900E000E20036002C412C4200003700CD
:10010000E30000001E001F00200021002200230049
:10011000240025002600270000003B003C003D0095
:100120003E003F00400041004200430044004500C3
:100130001E001F00200021002200230024002500B3
:100140002600270064520100460001000100010062
:1001500001000100010001000100010001003A005E
:100160000100007C01000100E3000000010001002B
:100170000000010001000100010001000100010078
:1001800001000100010000002F0030002F023002AA
:10019000310231002E022D022D002E004C001E02D5
:1001A0001F0220022102220223022402250226022B
:1001B000270201000100010001000100010001000F
:1001C00001000100010001000100010035000100F3
:1001D0000100010001000100000001000100000019
:1001E0000100010001000100010001000100010007
:1001F00001000100000014001A000800150017009B
:100200001C0018000C00520013002A000400160005
:10021000070009000A000B000D00500051004F00BC
:100220000100E1001D001B0006001900050011007F
:1002300010003400380028002B002900E000E20004
:1002400036002C002C0000003700E30000001E00E8
:100250001F0020002100220023002400250026008A
:100260002700000014001A000800150017001C00E9
:1002700018000C00120013002A00040016000700EA
:1002800009000A000B000D000E000F00330064523D
:10029000E1001D001B000600190005001100100000
:1002A0003400380028002B002900E000E20036006E
:1002B0002C002C0000003700E30000001E001F008F
:1002C0002000210022002300240025002600270012
:1002D00000001C03740061006E0075006B00690073
:1002E0005F006700610073006B0065007400000030
:1002F0001A034700750073007400610076006F00F8
:1003000020004300680065006E000000040309043B
:1003100009023B00020100A0FA09040000010301E8
:100320000100092111010001224400070581030891
:10033000000109040100010300000009211101006E
:1003400001226D0007058203200001120100020056
:10035000000008EDFE6464010001020001050109CE
:1003600080A101850319012AB700150126B7009560
:100370000175108100C0050C0901A1018504190156
:100380002AA002150126A002950175108100C00562
:10039000010906A1018506050719E029E7150025D1
:1003A000019508750181020507190029EF1500253F
:1003B0000195F0750181020508190129059505755A
:1003C000019102950175039101C005010906A10182
:1003D000050719E029E71500250195087501810237
:1003E0009501750881010507190029FF150026FFF1
:1003F00000950675088100050819012905150025D5
:1004000001950575019102950175039101C01124B3
:100410001FBECFEFDAE0DEBFCDBF11E0A0E0B1E05C
:10042000E4E0FCE302C005900D92A439B107D9F7CE
:1004300022E0A4E9B1E001C01D92A83AB207E1F7B9
:100440000E94D9110C94C11D0C9400000E94EB0C69
:1004500060937D0270937E0280937F02909380026E
:10046000089510927D0210927E0210927F021092E7
:10047000800260E070E0CB010E94F00C08958530AE
:10048000B8F46530A8F44B3098F450E09BE0699FD5
:10049000400D511D1124FA0197E3899FE00DF11DD4
:1004A0001124EE0FFF1FE455FF4F8591949108959D
:1004B00081E090E008950E943F02089581E0089550
:1004C0000E945E02089581E008950E945E020895F0
:1004D0000E946502089508950E946B020895A6E0A7
:1004E000B0E0E5E7F2E00C942B1D49835A839E832C
:1004F00030919B0189819A8131111AC03E81332349
:1005000099F0222389F00E946708182F682F8981AB
:100510009A810E94430869817A81812F0E94760F17
:100520002696E3E00C94471D0E945508182FF3CF40
:100530000E94670869817A81F1CFFC01262F4081F2
:10054000518162817381848195810E946F02089537
:10055000CF93DF93EC0161E00E949D02BE010E94F7
:100560006002DF91CF910895CF93DF93EC0160E0BB
:100570000E949D02BE010E946C02DF91CF910895FE
:1005800021E030E0A90102C0440F551F8A95E2F72F
:10059000CA010E9465070895CF93C82F81E090E0BB
:1005A0000C2E02C0880F991F0A94E2F70E94D30C08
:1005B0008C2F0E94C002CF91089581E008950E947F
:1005C000DD020895CF93C82F0E9418078C2F0E9438
:1005D000DF022FEF84E39CE0215080409040E1F760
:1005E00000C00000CF91089581E00E94E2020E94C5
:1005F0007316089580E00E94E2020E948416089516
:100600000F931F93CF93DF938C0161E00E949D02B3
:10061000EC01B8010E946802811106C080E0DF9100
:10062000CF911F910F910895B801CE010E947E13C2
:100630008823A1F3B801CE010E943E12882371F3F2
:10064000B801CE010E941412882341F3B801CE01F3
:100650000E947A10882311F3F8018581882361F0C4
:10066000C330FCE7DF07E9F058F4C115ECE7DE071B
:10067000A9F0C130DC47B9F0C8010E946302CFCFB6
:10068000CB358CE7D807A9F0CC35ECE7DE0771F065
:10069000CA35DC4789F70E94AE0CEECF0E94F40207
:1006A000BDCF0E94B60C0E94FA02B8CF0E94A40CE3
:1006B000E3CF0E94B20CE0CF0E94A4150E947C03FD
:1006C00008950E9480030E94A915089581E008956D
:1006D0000895CF93DF93D82F0E946603C82F8823F5
:1006E00019F08D2F0E9468038C2FDF91CF91089510
:1006F00008950E946903089580E00E947903089597
:100700000E94C7130E9479030895CF930E94C713D4
:10071000C82F809196018C1779F0C09396010E94A2
:100720003416609397017093980180939901909388
:100730009A018C2F0E947903CF910895ADE0B0E02B
:10074000E4EAF3E00C942C1D488759876A877B877D
:100750008C879D8791110E94B40B1F8286E0FE0159
:100760003896DE01119601900D928A95E1F78D8100
:1007700081110DC029813A814B815C816D817E811F
:100780008F810E94FE0A2D96E2E00C94481DCE0156
:1007900001960E94A8028111EDCFF5CFFC012481C2
:1007A000213021F4808191810E9499080895CF938E
:1007B000C82F8823C9F08238C9F40E94D41381FD60
:1007C00013C089E30E94E8140E94480C2FEF87EEC3
:1007D00093E0215080409040E1F700C0000089E3A1
:1007E0000E9402150E94480CCF9108958338A1F40D
:1007F0000E94D41380FDF8CF83E50E94E8140E9484
:10080000480C2FEF81EE94E0215080409040E1F7BA
:1008100000C0000083E5E4CF8438A1F40E94D41323
:1008200082FDE2CF87E40E94E8140E94480C2FEF7B
:1008300081EE94E0215080409040E1F700C000003C
:1008400087E4CECF8CEF8C0F813A70F48C2F0E940E
:100850005C14882329F08C2F0E9402150E94480CFA
:100860008C2F0E94E814BECF80E28C0F883048F4B1
:10087000C77081E001C0880FCA95EAF70E94970B04
:10088000B1CFEBE5EC0FE33040F4F0E0E85BFE4F76
:10089000808190E00E94F013A7CFC85ACB3108F0B6
:1008A000A3CFEC2FF0E0EE0FFF1FEE5EFE4F808136
:1008B00091810E94151498CF882309F44DC0823885
:1008C00079F40E94D41381FF47C089E30E94E814A1
:1008D0000E94480C89E30E9402150E94480C08956A
:1008E000833859F40E94D41380FF36C083E50E94F8
:1008F000E8140E94480C83E5EECF843859F40E9436
:10090000D41382FF29C087E40E94E8140E94480C97
:1009100087E4E1CF9CEF980F913AE8F290E2980FCC
:10092000983050F4877091E001C0990F8A95EAF7EA
:10093000892F0E949D0BD1CF9BE5980F933028F40F
:1009400090E080E00E94F0130895885A8B3120F4E3
:1009500090E080E00E94151408951F93CF93DF93D9
:10096000182FEB010E94D703209739F4812F0E94A2
:100970005C04DF91CF911F9108958FE99FE001976B
:10098000F1F700C000002197EFCF70E060E08933FD
:1009900011F460E570E00E94AD040895882321F011
:1009A0000E94970B0E94480C0895882321F00E9412
:1009B0009D0B0E94480C0895B0E0A0E0E2EEF4E048
:1009C0000C94251D6C01D62FC72FFC0115810681C3
:1009D00002950F700E948D0BE82E8823F9F0E12E0E
:1009E0001123E1F08C2F807F803461F080E28D0F45
:1009F000883008F18C2F807E803221F4D230D8F0FC
:100A00000023C9F08091820282FF15C082E00E941B
:100A1000780C0E948D0B91E0E82EE926BC2EB29452
:100A20009FE0B922FBE0FB15B8F1EB2DF0E0ED53B0
:100A3000F24E0C94161DE12CF1CF0C2F0F70C07FDD
:100A400011F00295007F112399F0002359F080E204
:100A50008D0F883010F0D11107C0802F0E94970BA6
:100A60000E94480C8D2F5AC0802F0E94A70BF8CFF0
:100A70008D2F0E945C04002379F080E28D0F883076
:100A800010F0D11104C0802F0E949D0B03C0802F55
:100A90000E94AD0B0E94480CEB2DE850FF0B3497E1
:100AA00020F40E94C7130E947903EE2089F00E946F
:100AB000890B80FD0DC0F60115820E94830B0E94F8
:100AC000A107C6010E94E3060E94830B0E94B107A2
:100AD000CDB7DEB7E9E00C94411D2C2F2F70F22E1C
:100AE000C07FC03219F0F29480EFF822DD2341F08C
:100AF000D130D1F1112309F444C00023F1F0B2CF79
:100B00008091820282FD15C0112359F0FF2029F047
:100B10008F2D0E94970B0E94480C80E00E94D70303
:100B2000BBCF80E00E945C04FF2009F4B5CF8F2D7D
:100B3000ABCF112369F0011104C08F2D0E94CE04A8
:100B4000ABCF013009F0A8CF8F2D0E94CB0BA4CFE3
:100B50000111A2CF8F2D0E94D5048F2D0E94D70B9B
:100B60008F2D0E94BB0B98CF112321F0033008F08A
:100B700093CFE3CF023008F08FCF8F2D0E94D504A2
:100B80008BCF0023D1F3D93349F43FEF87EE93E0C5
:100B9000315080409040E1F700C000008D2F0E944E
:100BA0005C047ACF8C2F86958695837069F08130AE
:100BB00009F072CF8D2F9C2F9370111102C080E02D
:100BC00090E00E94151468CF8D2F9C2F9370111107
:100BD00002C080E090E00E94F0135ECF8C2F837003
:100BE000A1F5111159CF4D2F429546954770440FED
:100BF000440F2D2F2F7030E0042E02C0220F331F20
:100C00000A94E2F790E080E0D4FF09C08FE090E022
:100C100002C0880F991F4A95E2F780959095C69576
:100C2000C695C370822B932BC23049F058F4C13063
:100C300019F00E94710730CF0E9468072DCF0E94E3
:100C40007A072ACF0E94650727CF8695112311F0D6
:100C50008C2F8170882309F41FCF4D2F4295469524
:100C60004770440F440F2D2F2F7030E0042E02C028
:100C7000220F331F0A94E2F790E080E0D4FF09C00E
:100C80008FE090E002C0880F991F4A95E2F78095A7
:100C90009095C695C695C370822B932BC23049F0B0
:100CA00058F4C13019F00E94DC07F6CE0E94D30739
:100CB000F3CE0E94E507F0CE0E948907EDCECF70FB
:100CC000112329F08C2F0E94A1078D2F37CF8D2F54
:100CD0000E94D5048C2F0E94B107DECED23F41F195
:100CE00060F4D03FB9F0D13F81F0112309F443C043
:100CF0000111B8CE8C2F8F711FC0D33F01F1D43FAB
:100D0000A1F78091820282FD24C08C2F8F71112364
:100D100011F312C0112341F0023008F0BDCE8C2F28
:100D20008F710E94C307B8CE033008F0B5CEF7CF5D
:100D30008C2F8F711111CFCF0E94A107ADCE11233F
:100D400029F08C2F8F710E949507A6CE0E949007E4
:100D5000A3CE112331F063E08C2F8F710E945A0CC7
:100D60009BCE81E00E94780C023008F495CE82E0A0
:100D70000E94780C91CE002359F0D93309F00ECFA0
:100D8000EFEFF7EE23E0E150F0402040E1F704CF31
:100D90008C2F8F71A0CF0F931F93CF93DF93EC0114
:100DA000688179818D810E94A4088C010E94EE07E0
:100DB0000E946407B801CE010E94DC04DF91CF914C
:100DC0001F910F910895CF93DF93EC018C818823BD
:100DD00099F0CE010E940003811111C00E948D0B79
:100DE000882351F08D81882339F08091820282FF1F
:100DF00003C082E00E94780CDF91CF910895CE016C
:100E00000E94CB06CE010E94B402F6CF90E080E0B3
:100E10000E94F01390E080E00E9415140E94B40B31
:100E20000E94480C08950E941C150E940607089510
:100E30000E94A40B0E941307089592959F7096300C
:100E400091F058F4925F9F70923058F4803F19F0FF
:100E500030F4883E30F481E008959A5FF4CF843F07
:100E6000D1F380E00895883EB0F3813FD1F7F3CF0E
:100E7000FC012481222339F0808191810E9499080C
:100E80000E941D07089580E00895A6E0B0E0EBE41D
:100E9000F7E00C942C1D2696E2E00C94481DA7E088
:100EA000B0E0E5E5F7E00C942C1D2796E2E00C9409
:100EB000481D08950E94590708950E945A0790936B
:100EC000BB018093BA01089508950E945D070895BB
:100ED0002091BA013091BB01822B932B0E945D07B8
:100EE00008952091BA013091BB01822393230E947F
:100EF0005D0708952091BA013091BB0182279327A5
:100F00000E945D0708950E94590708950E94830773
:100F100008950E9486079093B9018093B8010895BF
:100F200090E080E00E948907089521E030E0A90167
:100F300002C0440F551F8A95E2F7CA010E94890733
:100F4000089521E030E002C0220F331F8A95E2F7B6
:100F50008091B8019091B901822B932B0E9489074F
:100F6000089521E030E002C0220F331F8A95E2F796
:100F7000209530958091B8019091B90182239323F7
:100F80000E948907089521E030E002C0220F331F3C
:100F90008A95E2F78091B8019091B9018227932751
:100FA0000E94890708952091B8013091B901822BE0
:100FB000932B0E94890708952091B8013091B901BF
:100FC000822393230E94890708952091B8013091CC
:100FD000B901822793270E94890708950895262F33
:100FE000277091E001C0990F2A95EAF723E07695E2
:100FF00067952A95E1F7660F771F660F771FFA014D
:10100000E60FF71F50E040E0682F70E08191DF01AC
:1010100011979B01042E02C0369527950A94E2F79A
:10102000217021952827292328272C934F5F5F4F74
:101030004430510559F70895A82FA77023E09695DD
:1010400087952A95E1F7880F991F880F991FFB0153
:10105000E80FF91F50E040E080E0219130E00A2ED7
:1010600002C0369527950A94E2F721703327042EA3
:1010700001C0220F0A94EAF7822B4F5F5F4F443082
:10108000510559F70895262F953070F48B3060F490
:10109000682F70E08BE0989F600D711D11244CE962
:1010A00051E0822F0E94EF070895292F953068F4B0
:1010B0008B3058F490E06CE971E03BE0239F800DA9
:1010C000911D11240E941C08089580E00895B0E04D
:1010D000A0E0EDE6F8E00C94251D7C010091B8013C
:1010E0001091B9018091BA019091BB01082B192B85
:1010F000CFE0D0E0CC24C394D12CBC2EC6010C2E62
:1011000002C0880F991F0A94E2F780239123892B4C
:1011100049F4219790F7B12C8B2DCDB7DEB7E9E0DC
:101120000C94411DB7018C2F0E94820F019789F307
:10113000F3CFCF93DF93EC010E946708BE010E94BA
:10114000820FDF91CF9108951F93CF93DF93EB012F
:1011500090919B01992339F0CB010E949908DF916E
:10116000CF911F910895882369F0CB010E946708F1
:10117000182F682FCE010E944308BE01812F0E94C4
:10118000820FEDCFCB010E945508182FF6CF1F9389
:10119000CF93DF93C091BC0117E08091BD018C1308
:1011A00004C0DF91CF911F910895D0E01C9FF00102
:1011B0001D9FF00D1124E254FE4F208131814281A8
:1011C00053816481758186810E944F072196C77083
:1011D000E4CF2091F6013091F7014091F801509150
:1011E000F9016091FA017091FB018091FC010E946C
:1011F0004F070895CF93DF938091FC01807F09F022
:101200004DC08091FB01882309F448C0E091BC01E6
:101210005091BD01C091F701D091F6016091F801A4
:101220007091F90147E05E17C9F18E2F90E0E49FBD
:10123000F0011124E254FE4F2481222391F1489FB2
:10124000F001499FF00D1124DF01A254BE4F119609
:101250002C9111972C1325C02C912D1322C015967B
:101260002C91159721111DC012962D913C91261B92
:10127000370B26393105A8F48091FC018F7080610D
:101280008093FC01EC53FE4F80818F7080618083DE
:1012900086EF91E00E94E3060E94C708DF91CF919C
:1012A0000895FC013196E770BECF482F2091BC0114
:1012B0009091BD0157E0291302C080E0089530E00D
:1012C000529FF001539FF00D1124E254FE4F818193
:1012D000681306C08081481303C085818111EECF59
:1012E0002F5F3F4F2770E7CFA4E1B0E0EAE7F9E0D6
:1012F0000C94221D8C0186E0F801DE011F960190FE
:101300000D928A95E1F7F8018481E58096EFA92E88
:1013100091E0B92E9091FA0191111FC08823D1F06C
:10132000EE20A9F0C8010E943807F82E882379F032
:1013300087E0F801D50101900D928A95E1F7C5018A
:101340000E94CE030E94FA080E94E9085FC0C8010B
:101350000E94E306FF24F39459C0C080D1808280AC
:101360009380F090FB012091F8013091F901A401E4
:10137000421B530BFF2009F4F9C04639510508F010
:10138000A7C0882309F442C09091F7018091FC0125
:10139000282F207F09F05CC09D1116C09091F601A6
:1013A000C91212C0E1104EC08F7080618093FC01A1
:1013B0000E94E90886EF91E00E94E3068091FC011B
:1013C000F8018683F12C22C0E1103CC06D2D8C2DDC
:1013D0000E9455096D2D8C2D0E945509E82E811112
:1013E000F1CFCF86D88A8F8598890E949908292FB6
:1013F00022952F70243078F49F702230A8F0992322
:10140000B9F0F8019681907F99F4FE2C8F2D6496A7
:10141000ECE00C943E1D2A5F2F70223068F0C8016A
:101420000E94E306EF2CF1CF992311F0882369F392
:10143000805E883050F3F3CF803F38F3815F833094
:1014400070F7E3CF8091FC0181608093FC01BACFFB
:101450009D1113C09091F601C9120FC0E1100DC08B
:101460008683C8010E94E30687E0F801A6EFB1E099
:1014700001900D928A95E1F767CFC8010E94380765
:10148000882309F464CFEE2009F461CF8091FC0138
:10149000803288F02091F6013091F7013987288752
:1014A0009B868A869091FA019C871D868E87CE0145
:1014B00008960E94E30687E0F801A6EFB1E00190EC
:1014C0000D928A95E1F70E94FA080E94E90842CF3E
:1014D0009091FC01292F207FA1F4682D9A8A898A96
:1014E000A6017A899E2D0E94450786EF91E00E9411
:1014F000E30687E0F50111928A95E9F70E94E90871
:1015000061CF882309F482CF8091F7018D1110C03B
:101510008091F601C8120CC0E1100AC09683C80180
:101520000E94E30687E0F50111928A95E9F76ECFF4
:10153000C8010E943807882309F409CFEE2009F476
:1015400006CF8091FC01803208F4B5CF2091F601DE
:101550003091F7013A8329839C828B829091FA0122
:101560009D831E828F83CE010196A3CF46395105FC
:10157000B8F5882309F4EECEFE2CEE2009F4E7CE70
:101580008091F7018D111EC08091F601C8121AC01A
:101590008091FC0180FD0DC0982F907F51F08683D3
:1015A000903F09F45ECF982F907F905F8F70892BCA
:1015B00057CF87E0F801A6EFB1E001900D928A9530
:1015C000E1F724CFC8010E943807811174CF8091C0
:1015D000FC0181608093FC01C8010E94E30616CFE4
:1015E000682D9A8A898AA6017A899E2D0E944507CC
:1015F00087E0F50111928A95E9F7A6CEAEE0B0E05A
:10160000E4E0FBE00C942B1D288739874A875B8731
:101610006C877D878E87CE0108960E947409882387
:10162000B1F06C85662341F0288539854A855B8554
:101630007D858E850E944F0717E08091BC019091B7
:10164000BD0189133DC02E96E3E00C94471D87E051
:10165000FE013896DE01119601900D928A95E1F710
:101660008C85882349F32091BD0130E0C9010196A2
:10167000877099274091BC014817190699F097E0A7
:10168000929FD001939FB00D1124A254BE4FFE0132
:10169000319601900D929A95E1F78093BD010E94D9
:1016A000C708CACF0E9418071092BD011092BC0152
:1016B00087E0E6EFF1E0DF011D928A95E9F7BCCF04
:1016C000819FC001112482549E4F0E947409882377
:1016D00009F4B9CFE091BC011E9FF0011124E2543E
:1016E000FE4F2081318142815381648175818681E1
:1016F0000E944F078091BC0190E001968770992766
:101700008093BC019ACF8091250286958695869517
:101710000895809125028770089590912502977011
:1017200081E009F480E0089580915102089590913C
:101730005102892B80935102089580959091510216
:101740009823909351020895109251020895909118
:101750005002892B809350020895809590915002F9
:10176000982390935002089510925002089508957E
:101770000E94B70B089590912602292F282331F05B
:1017800080958923809326020E94B80B08950895BE
:101790000E94C70B089590912702292F282328170C
:1017A00029F0982B909327020E94C80B08959091DE
:1017B0002702292F282331F080958923809327023F
:1017C0000E94C80B089580912702882329F0109267
:1017D000270280E00E94C80B0895CF93C091510268
:1017E00080915002C82B80912702882331F0C82BAA
:1017F0000E943A1481110E94E30B8C2FCF9108951F
:10180000CF93DF93C0910201D09103010E94ED0BB1
:101810008883C0910201D091030148E050E06DE15E
:1018200072E0CE010E94531D892B59F088E0FE0121
:10183000ADE1B2E001900D928A95E1F7CE010E94F0
:10184000D713DF91CF910895CF93DF93C09100011B
:10185000D09101010E94ED0B8983C0910001D091CC
:10186000010140E250E06DEF71E0CE010E94531D96
:10187000892B59F080E2FE01ADEFB1E001900D92AD
:101880008A95E1F7CE010E94E213DF91CF9108958E
:101890000E947F15813039F48091810287FF03C057
:1018A0000E94240C08950E94000C089508950E943F
:1018B000560C08959091820292FF11C098E0899F82
:1018C00090011124622B609325020E94A107809150
:1018D00025028695869586950E94570C08950E944C
:1018E000A10708951092250280E00E94570C0895E8
:1018F000909125028095892380932502282F2770B7
:1019000069F4891759F09091820292FF07C0869579
:10191000869586950E94B1070E94720C0895909159
:10192000820292FB222720F9281769F080FB92F9A6
:101930009093820280918102909182020E94DE0C3B
:1019400082E00E94780C08958091820282FB8827B1
:1019500080F991E089270E948F0C089581E00E9410
:101960008F0C089580E00E948F0C08956FEF7FEF39
:1019700090E080E00E94AB1D089590E080E00E941E
:10198000771D21E0853E9E4F09F020E0822F0895CB
:1019900082E090E00E94691D089583E090E00E943B
:1019A000691D90E00895682F83E090E00E948D1DEE
:1019B000089584E090E00E94771D0895BC0184E0C2
:1019C00090E00E94AB1D0895AB01BC018FE090E058
:1019D0000E949F1D089583E190E00E94711D08956B
:1019E000AB01BC0183E190E00E949F1D089560E07F
:1019F00070E0CB010E94E40C0E9431020895A8E03F
:101A0000B0E0E5E0FDE00C942C1D65EE7EEF90E08B
:101A100080E00E94AB1D60E082E090E00E948D1D9E
:101A200081E090E09093BB018093BA010E94D30CB7
:101A300060E074E184E090E00E94AB1D60E086E02D
:101A400090E00E948D1D60E087E090E00E948D1D77
:101A500040E050E0BA0188E090E00E949F1D60E005
:101A600083E290E00E948D1D60E08CE090E00E9497
:101A70008D1D60E08DE090E00E948D1D19821A821C
:101A80001B821C821D821E821F82188648E050E045
:101A900067E170E0CE0101960E947D1D40E050E0BC
:101AA000BA018FE190E00E949F1D0E94F70C2896DA
:101AB000E2E00C94481D0E94FF0C0895682F8EE010
:101AC00090E00E948D1D0895A6E0B0E0EAE6FDE0FA
:101AD0000C942A1D0E9428168C018091520290912C
:101AE00053028017910781F019821A820E942816EA
:101AF000682F49815A81792F80E090E00E949E03EF
:101B000010935302009352022696E4E00C94461D73
:101B10000E943416609362027093630280936402A1
:101B20009093650260935E0270935F0280936002FF
:101B3000909361020895089508950E949B0D089561
:101B40000E942602089588E790E10E94EE110E940B
:101B50009C0D0E949D0D089581E008950E94AC0D9A
:101B600008950E94AC0D0895089508950E94B40D43
:101B70000E94B50D08950E94BD0C811102C00E9403
:101B80005B0D0E94C80C809366020E94D90C909352
:101B90008202809381020E9411120E94CD0C0E9449
:101BA00065078091B8019091B9010E948607089558
:101BB0000E941F160E9449110E94BB0D0E947803CB
:101BC0000E94A00D0895A6E0B0E0E9EEFDE00C94BF
:101BD000201D0E94AE0D811108C00E94640D0E945C
:101BE00085032696EEE00C943C1D0E945F1124E5CF
:101BF000822E22E0922E640110E0F601E190F19035
:101C00006F01812F0E9494101F5F153009F44BC0A3
:101C1000E816F90691F38091660281FD0E949D10FD
:101C20000E94B10D782E10E066246394812F0E94EB
:101C300094107C01F401A190B1904F018A159B058D
:101C400061F1A826BF2400E0CC24C394D12CC501A7
:101C50008C219D21892BC1F07720B1F009831A8353
:101C60000E9428169C838B836D8221E0C7018C2102
:101C70009D21892B09F420E049815A816B817C8167
:101C80008D81922F0E949E030F5FCC0CDD1C0B30C8
:101C9000F1F6F4013297F182E0821F5F153031F6E0
:101CA0000E94880D9CCFE816F90609F0B4CF95CFB5
:101CB0001F93CF93DF930E94870FEC01C11580E53E
:101CC000D807F0F5C11580E4D80708F09CC0C03EE5
:101CD000D10520F5CD3CD10508F082C0C83AD10528
:101CE00078F4C53AD10508F073C0C130D10519F1B7
:101CF000209709F1C430D105F0F4D0E0C0E01BC05A
:101D0000C33CD105D0F7C85AD0E0CC0FDD1FC55B6E
:101D1000DE4F0990D881C02DD4640DC0C11580E27A
:101D2000D80708F0D1C0C11581E0D80708F05AC023
:101D3000C83ED10510F7CE01DF91CF911F910895D4
:101D4000C03682E5D80718F5C03482E5D80708F018
:101D50006BC0C03282E5D80708F05FC0C11582E5CC
:101D6000D80708F497C02C2F2695269580E2289F47
:101D7000900111248C2F8370C1E0D0E002C0CC0F01
:101D8000DD1F8A95E2F7C22BD32BDD68D4CFC03A92
:101D900082E5D80760F4C03882E5D80708F459C056
:101DA000CF71D0E0DC2FCC27C46FD06AC4CFC03C49
:101DB00082E5D80708F462C0C03E82E5D80708F083
:101DC0009CCFDC2FCC27CC27DF71C06FD06AB3CF7C
:101DD000C55AD0E0CF57DE4FC881D0E0D064ABCF3A
:101DE000D065A9CF8D2F0E942910182FCE019927D9
:101DF0000E94870FC12FD0E0DC2FCC27CC27DF71CA
:101E0000C82BD92B98CFCE0199270E94870FCC27BA
:101E1000DF70C82BD92BD06A8ECFCF71D0E0DC2FEA
:101E2000CC27C16FD06A87CF2C2F26952695277097
:101E300080E2289F900111248C2F8370C1E0D0E0B4
:101E400002C0CC0FDD1F8A95E2F7C22BD32BDC68D2
:101E500072CF2C2F26952695277080E2289F90011F
:101E600011248C2F8370C1E0D0E002C0CC0FDD1FA5
:101E70008A95E2F7C22BD32BDA685DCF8C2F8F7156
:101E80000E942910C82FD0E0DC2FCC27CC27DF718F
:101E9000D06251CF8C2F8F710E94291055E0D695BA
:101EA000C7955A95E1F7CF70D0E0DC2FCC27282FCB
:101EB00030E084FF05C044E0220F331F4A95E1F76C
:101EC000C22BD32BD06937CF8D2F8F710E94291051
:101ED000182FCE0199270E94870FC12FD0E0DC2F49
:101EE000CC27CC27DF71C82BD92BD2CF462F75300A
:101EF00030F46B3020F4672F0E945B02089590E06D
:101F000080E008950E94760F0E94580E089582384E
:101F10009105B9F1B0F48133910509F47DC048F41D
:101F20008932910509F46DC08A32910509F47BC0AC
:101F300008958533910509F45FC08933910509F14E
:101F40000895833E9105D9F138F4803E910529F139
:101F5000823E910579F10895863E9105D9F1873E3B
:101F6000910509F43EC0843E910541F5209182021D
:101F700021FF24C08091810284FD19C087EE90E08A
:101F8000089520918102237009F05AC020918202A5
:101F900023FF14C089E290E008952091810220FD82
:101FA00038C03091820230FF09C024FF43C090E066
:101FB00080E008952091810222FDF7CF08952091BD
:101FC000810222FD3AC03091820230FD39C024FFE7
:101FD000F5CFEDCF2091810223FFF0CF24FDE7CF95
:101FE000CDCF2091810223FD2EC03091820231FF9E
:101FF000EECF84EE90E008952091810225FFDECFA0
:10200000C9CF2091810225FD21C02091820223FFAA
:10201000D5CF89E390E0D2CF2091810226FFCECFA9
:102020008AE290E008952091810226FFC7CF81E3E4
:1020300090E0089583EE90E0089582EE90E0089598
:1020400080EE90E0089586EE90E0089585E390E0BC
:1020500008959091810292FF10C041E0282F2471D1
:10206000243009F040E031E0282F2871283009F0B1
:1020700030E0431711F02CE0822793FF10C041E0BD
:10208000282F2471243109F040E031E0282F2871F5
:10209000283109F030E0431711F02CE0822730910D
:1020A000820230FF10C051E0282F2171213009F049
:1020B00050E041E0282F2871283009F040E0541703
:1020C00011F029E0822731FF10C041E0282F217153
:1020D000213109F040E031E0282F2871283109F042
:1020E00030E0431711F029E0822794FD877E0895A0
:1020F00080E00895CF939C01205E3245C1E02032FC
:10210000310538F4FB01C581C11103C08F710E94F4
:10211000CC028C2FCF91089508950E948C100895C1
:1021200008950E9490100895E82FF0E0EE0FFF1F31
:10213000E357FD4F808191810895089580EA8A9543
:10214000F1F7089500C008950E949E100895F89434
:10215000E82FE295EF70F0E031A1282F2F7081E099
:1021600090E001C0880F2A95EAF7982F9095932365
:1021700091A392A1892B82A378940895CF93DF93A2
:10218000CFE8D1E089918F3F11F00E94A71081E044
:10219000C439D807B9F7C4E8D1E089918F3F11F06D
:1021A0000E94A71081E0CF38D807B9F7DF91CF910F
:1021B0000895AF92BF92DF92EF92FF920F931F9319
:1021C000CF93DF938C01D62EC62FD0E0CE0181575E
:1021D0009E4F7C01FC0120812F3F09F44DC0F894F3
:1021E000E22FE295EF70F0E031A12F7081E090E0F6
:1021F00001C0880F2A95EAF7932F982B91A392A1FB
:102200008095892382A378940E94A210E4E8F1E0EB
:102210004FE851E021E030E0B12CA12C61916F3FFB
:10222000A9F1A62FA295AF70B0E090968C9190E0A6
:102230006F7002C0959587956A95E2F780FD26C07C
:10224000C901A82AB92A220F331F4E175F0731F799
:10225000F70180818F3F11F00E94A71061E0A11467
:10226000B10409F460E08D2D0E94A410CC0FDD1F95
:10227000C00FD11FB982A882DF91CF911F910F911A
:10228000FF90EF90DF90BF90AF90089590E080E0D6
:10229000D8CF0E94BE108AE0EDE8F2E0DF01982F6F
:1022A0001D929A95E9F7E3E8F2E0DF011D928A9525
:1022B000E9F785E00E949A110E948D100895AAE026
:1022C000B0E0E5E6F1E10C94291D8E010F5F1F4F90
:1022D0008AE0F80111928A95E9F7F12C6F2DC80177
:1022E0000E94D910F394F5E0FF12F8CF4AE050E0D5
:1022F000B80183E892E00E94531D21E0009709F4A1
:1023000020E0892B41F08AE0F801A3E8B2E00190D7
:102310000D928A95E1F745E06DE872E083E892E07E
:102320000E949B11182F0E949110812F2A96E5E0A0
:102330000C94451D0895B0E0A0E0E1EAF1E10C94B1
:10234000261D6C017B01042FC22F222379F081E02E
:10235000809369020E942816909368028093670216
:1023600080E0CDB7DEB7E8E00C94421DD091690261
:10237000DD23B1F380916702909168020E944016BC
:10238000059770F310E0000F111FA801B601C701F7
:102390000E94531D892B31F0A801B601C7010E948C
:1023A000601DCD2F109269028C2FDBCF0E94E30DB0
:1023B00008950E94C1150E94D2170E94A30D0E9489
:1023C000EC170E94D80D0E94F9170E94FE170E9478
:1023D000D6110E9418180E94B60DF7CF9093950160
:1023E0008093940108950E94B60C089580E00E94A5
:1023F0009410817008950E945F112FEF86E791E09D
:10240000215080409040E1F700C000000E945F1121
:102410000E94F611882321F00E94F3110E94731686
:1024200008950E94FB110895CF93DF93EB0186314D
:102430009C4711F50E94940B9D81992399F08A7A0B
:1024400091E009F490E090936A02811109C089E259
:102450000E94E8140E94480C80E0DF91CF9108951B
:1024600085E3F6CF80916A02811104C089E20E945F
:102470000215F0CF85E3FBCF81E0EFCFCF93DF9361
:10248000EC01FB018581882309F4D2C09E013057FD
:102490002332310508F0B2C00E94D90C9093820219
:1024A00080938102FE01E150F047E232F10520F411
:1024B000E153F24E0C94161D80918102816080934D
:1024C000810293C0809182028860809382028DC0D5
:1024D000809181028260F3CF809181028460EFCF8E
:1024E000809181028860EBCF809182028160EDCF84
:1024F000809182028260E9CF809181028061DFCF8A
:10250000809181028062DBCF809181028064D7CF8D
:102510000E941807809181028068D1CF809181024A
:102520008C60CDCF809182028360CFCF8091810279
:102530008E7FC5CF80918202877FC7CF8091810235
:102540008D7FBDCF809181028B7FB9CF8091810239
:10255000877FB5CF809182028E7FB7CF8091820234
:102560008D7FB3CF809181028F7EA9CF8091810230
:102570008F7DA5CF809181028F7BA1CF0E9418070C
:10258000809181028F779BCF80918102837F97CF4B
:10259000809182028C7F99CF8091810282FB992762
:1025A00090F921E0922790FB82F990FB83F987CF85
:1025B00080918202982F909591708E7F892B90FB4D
:1025C00081F983CF90918102892F8F7B96FF806460
:1025D00076CF0E94180790918102892F97FB87F987
:1025E00080586DCF81E00E945E0D809181029091B4
:1025F00082020E94DE0C0E94180780E0DF91CF91DA
:10260000089580E0F0CF90918102892F8F7E94FF12
:10261000806155CF90918102892F8E7F90FF8160DC
:102620004ECF90918202892F877F93FF88604DCF94
:1026300081E0E4CF0F931F93CF93DF93C42FD22F6A
:10264000FC0185818823C9F040936D020E94281601
:1026500090936C0280936B0280E28C0F883040F480
:10266000C77081E001C0880FCA95EAF70E94CE04C6
:10267000DF91CF911F910F91089510916D02141366
:1026800032C080916B0290916C020E944016863994
:10269000910548F5C0E2CD0F1D17B9F080E2810F1A
:1026A000883040F4177081E001C0880F1A95EAF76E
:1026B0000E94D504C83048F481E09D2F977001C076
:1026C000880F9A95EAF70E94CE04802F0E94C504D5
:1026D000C83070F6D77081E001C0880FDA95EAF74C
:1026E0000E94D504C5CF80E28C0F883008F6C770F1
:1026F00081E001C0880FCA95EAF7F2CF0F93DB01A2
:1027000088519C4787309105A0F5FC01EF50F24EAF
:102710000C94161D06E221EE41EE6AE17CE7CD0144
:102720000E941A1380E00F91089507E225EE45EE0E
:102730006BE17CE7F4CF06E221EE40EE68E17CE756
:10274000EECF07E225EE44EE69E17CE7E8CF06E252
:1027500021EE42EE6CE17CE7E2CF07E225EE46EEA9
:102760006DE17CE7DCCF08E221E045EE6EE17CE73D
:10277000D6CF15968C91882319F010926D02D3CF85
:1027800081E0D1CF90937302809372020895E0911B
:102790007202F0917302309729F00190F081E02DE0
:1027A0000995089580E008950E94C7130895E09167
:1027B0007202F0917302309721F00280F381E02DD4
:1027C00009950895E0917202F0917302309739F003
:1027D00026E0DC012C930480F581E02D0995089515
:1027E000A3E0B0E0E6EFF3E10C942C1D2091700221
:1027F0003091710228173907A1F0909371028093EC
:102800007002E0917202F0917302309751F023E070
:1028100029839B838A830084F185E02DCE01019674
:1028200009952396E2E00C94481DA3E0B0E0EBE1AB
:10283000F4E10C942C1D20916E0230916F02281748
:102840003907A1F090936F0280936E02E0917202BB
:10285000F0917302309751F024E029839B838A839F
:102860000084F185E02DCE01019609952396E2E0E2
:102870000C94481DCF93DF93C0910201D0910301C6
:1028800022960E947F15813081F48091810287FF1A
:102890000CC0C0910001D091010122969EE180E020
:1028A000915028F4DF91CF91089596E0F8CF2991C7
:1028B0002223B1F38F5FF4CFCF93C82F811102C0D1
:1028C00080E024C00E947F15813011F58091810243
:1028D00087FF1EC0EC2FE695E695E695EE3180F772
:1028E0008091000190910101E80FF92FF11D2281E3
:1028F00030E0C77081E090E002C0880F991FCA9550
:10290000E2F72823392381E0232BD1F2CF910895D8
:102910008091020190910301FC0132960896219169
:102920002C1721F0E817F907D1F7CACF81E0EECFD5
:102930009C01FC0132969FEF80E04191461751F0D7
:102940009F3F19F4411101C0982F8F5F8630A9F77E
:102950009F3F09F40895290F311D97FD3A95F9011C
:1029600062830895FC01329608962191261303C0D4
:10297000DF0111971C92E817F907B9F70895E62FC0
:10298000E695E695E695EE3168F4E80FF92FF11D2E
:10299000677021E030E001C0220F6A95EAF782817A
:1029A000822B82830895E62FE695E695E695EE3133
:1029B00070F4E80FF92FF11D677021E030E001C0DD
:1029C000220F6A95EAF720958281282322830895B1
:1029D000CF93C82F0E947F156C2F813061F48091B6
:1029E000810287FF08C080910001909101010E943F
:1029F000BF14CF91089580910201909103010E942C
:102A00009814F7CFCF93C82F0E947F156C2F813079
:102A100061F48091810287FF08C08091000190914C
:102A200001010E94D314CF910895809102019091E9
:102A300003010E94B214F7CF0E947F15813079F410
:102A40008091810287FF0BC0E0910001F0910101AC
:102A500032968EE1DF011D928A95E9F70895E091A3
:102A60000201F0910301329686E0F4CF08950E94AE
:102A70003615089581110EC081E0809307016091A1
:102A800004017091050180910601909107010E9457
:102A90003715089582E0F1CF83E0809307016091BC
:102AA00004017091050180910601909107010E9437
:102AB000371508950E943A15089581E08093070123
:102AC00060910401709105018091060190910701C8
:102AD0000E94371508950E945D15089591E08111B7
:102AE00001C090E09093060160910401709105018E
:102AF00080910601909107010E94371508958091F9
:102B0000060108958093050160910401709105010B
:102B100080910601909107010E94371508958091D8
:102B200005010895809304016091040170910501ED
:102B300080910601909107010E94371508958091B8
:102B400004010895089508950E94A3150895089515
:102B500008950E94A2150895CF930E94A7150E9480
:102B60005F110E94A815C0E08C2F0E949410892B41
:102B700031F4CF5FC530C1F780E0CF91089581E097
:102B8000FCCF85B7806885BF85B7806885BF08950D
:102B90001F921FB61F9211248F939F93AF93BF93E1
:102BA00080917402811113C08091970290919802D4
:102BB000A0919902B0919A024196A11DB11D8093F6
:102BC000970290939802A0939902B0939A02BF91B2
:102BD000AF919F918F911F901FBE1F90189580916C
:102BE0009F02843031F10E945C031092740288E1EC
:102BF00090E020E40FB6F894A895809360000FBE93
:102C00002093600083B7817F846083BF83B7816036
:102C100083BF7894889583B78E7F83BF0FB6F8946F
:102C2000A895809160008861809360001092600098
:102C30000FBE08950E9418070E946103089582E064
:102C400084BD93E095BD9AEF97BD80936E00089583
:102C50002FB7F8948091970290919802A0919902D1
:102C6000B0919A022FBF08952FB7F8946091970200
:102C7000709198028091990290919A022FBF0895C5
:102C80009C014FB7F8948091970290919802A0917F
:102C90009902B0919A024FBF821B930B08957894CA
:102CA0001F921FB61F9211248F939F93AF93BF93D0
:102CB0008091970290919802A0919902B0919A0206
:102CC0000196A11DB11D8093970290939802A09345
:102CD0009902B0939A02BF91AF919F918F911F90EB
:102CE0001FBE1F90189587E797E790930108809380
:102CF000000888E19AE00FB6F894A89580936000E8
:102D00000FBE90936000FFCF88E19AE00FB6F89471
:102D1000A895809360000FBE90936000FFCF089548
:102D20009B01BA0190919F029430E9F48F708093D7
:102D3000E9009FEF8091E800915085FD06C085ED88
:102D40008A95F1F700009111F5CF8091E80085FF99
:102D50000AC050E040E0C9010E948F188091E8004D
:102D60008E778093E800089543E050E0BC0182E054
:102D70000E949016089540E250E0BC0182E00E945B
:102D800090160895CF93DF93EC010E947F1548E0E1
:102D900050E0BE0181E00E94901688E0FE01A5E7A8
:102DA000B2E001900D928A95E1F7DF91CF910895FD
:102DB00080919E02811109C00E941F1A0E947C1AF4
:102DC0008091E20084608093E200089510929E0258
:102DD00008950E945D1581E00E946E15089560912E
:102DE0009B0281E0611101C080E00E944C150895B2
:102DF00090919F0281E0943009F080E060919B0205
:102E00000E945A15089542E061EC81E00E949B19EE
:102E100042E261EC82E00E949B1990919F0281E066
:102E2000943009F080E060919B020E943A15089569
:102E30008091A102833009F461C030F48130D1F176
:102E4000823009F49EC008958A3009F48AC08B301C
:102E500009F46FC0893009F050C08091A00281321E
:102E600009F04BC08091A4029091A502029708F04E
:102E700044C08091E800877F8093E8008091E8005B
:102E800082FF37C09091F3008091F200029731F4F5
:102E90008091F100813011F0863021F48091F100B1
:102EA0000E9482158091E8008B778093E8000E9451
:102EB000CF1923C08091A002813AF9F48091E800F3
:102EC000877F8093E8008091A4029091A502892BCE
:102ED00061F468E085E792E070E00E94DE1880917E
:102EE000E8008B778093E800089560E090E080E050
:102EF000F3CF80919F028111C1CF08958091A002EC
:102F0000813AD9F78091A4029091A502892BA9F763
:102F10008091E800877F8093E8008091E80080FF3F
:102F2000FCCF0E947F158093F1008091E8008E779E
:102F3000BCCF8091A002813201F78091A4029091D0
:102F4000A502892BD1F68091E800877F8093E80065
:102F50000E94CF198091A2020E946E150E9418074C
:102F600008958091A002813241F68091E800877F28
:102F70008093E8000E94CF198091A3020E949215CD
:102F800008958091A002813A09F0B7CF8091E800BE
:102F9000877F8093E8008091E80080FFFCCF0E944B
:102FA0009F15C1CF84B7877F84BF0FB6F894A895CB
:102FB00080916000886180936000109260000FBE75
:102FC00080E890E00FB6F8948093610090936100E0
:102FD0000FBE0E946B1508950E941F1A0E947C1A52
:102FE000E2EEF0E080818460808378940E94FB1C94
:102FF000089588E091E00E94C213089580919F0295
:10300000853031F480919F02853019F00E941A16A4
:1030100008950E94EF150E94AC15882399F38091C2
:103020009D02882379F30E9479180E941807EACF3D
:1030300008959A014091A6025091A7020E9421187A
:103040000895492F55274330510519F168F441304F
:10305000510509F444C04230510509F445C090E0DF
:1030600080E050E040E025C04132510549F1423254
:103070005105A9F784E490E04AEC53E0611571052D
:10308000C1F08DE690E04DE553E06130710589F0C7
:10309000E6CF99278130910581F0009729F00297BA
:1030A000F1F6E2EDF2E002C0ECE0F3E0849190E0B2
:1030B000AF01F901518340830895E0EFF2E0F6CFCC
:1030C00089E090E042E253E06115710591F389E0F7
:1030D00090E04BE353E06130710559F3C0CF82E1DA
:1030E00090E04BE453E0E5CF8BE390E040E153E028
:1030F000E0CF80E189BD82E189BD09B400FEFDCF4A
:103100008091D8008F7D8093D8008091E00082600C
:103110008093E0008091E00081FDFCCF0895AF92A4
:10312000BF92CF92DF92FF920F931F93CF93DF93C3
:103130006C01EB018A010E94EE19F82E811123C067
:103140000115110539F0F80180819181C81BD90B57
:10315000C80ED91EB12CA12C2097A9F08091E800AF
:1031600085FD22C08091E8008E778093E8000115EC
:103170001105A1F0F80180819181A80EB91EB182DC
:10318000A08285E0F82E8F2DDF91CF911F910F91B6
:10319000FF90DF90CF90BF90AF9008950E94EE19FE
:1031A0008823D1F2F82EEFCFF60181916F01809341
:1031B000F1002197FFEFAF1ABF0ACECFFC0180913B
:1031C000A6029091A70286179707A0F061157105D6
:1031D00029F49091E8009E779093E80090E06115C3
:1031E000710551F4911108C08091E80082FF34C04C
:1031F00080E00895BC01F2CF80919F028823C1F145
:103200008530C1F18091E80083FD30C08091E800F5
:1032100082FDEACF8091E80080FFE1CF8091F3004A
:103220002091F200382F6115710519F02830310511
:1032300058F091E02830310509F090E02091E80045
:103240002E772093E800CBCF81918093F1006150DD
:1032500071092F5F3F4FE7CF80919F02882341F094
:10326000853041F08091E80083FFBECF81E0089572
:1032700082E0089583E00895FC018091A602909178
:10328000A70286179707A0F06115710529F48091B0
:10329000E8008E778093E80090E06115710551F4A5
:1032A000911108C08091E80082FF35C080E0089548
:1032B000BC01F2CF80919F028823C9F18530C9F10A
:1032C0008091E80083FD31C08091E80082FDEACF63
:1032D0008091E80080FFE1CF8091F3002091F2001F
:1032E000382F6115710519F02830310558F091E03B
:1032F0002830310509F090E08091E8008E778093C6
:10330000E800CBCF84918093F10031966150710930
:103310002F5F3F4FE6CF80919F02882341F0853099
:1033200041F08091E80083FFBDCF81E0089582E005
:10333000089583E00895982F973028F08F70809338
:10334000E90081E008959093E900242F762F50E062
:10335000981731F07091EC002091ED005091F00041
:1033600021FD02C09F5FE8CF3091EB003E7F30939C
:10337000EB003091ED003D7F3093ED003091EB009C
:1033800031603093EB007093EC002093ED0050938C
:10339000F0002091EE0027FDE5CF80E008958091B8
:1033A000A00287FF13C08091E80082FF06C08091D1
:1033B000E8008B778093E80004C080919F02811120
:1033C000F2CF089580919F028823D9F38091E8007D
:1033D00080FFF8CF8091E8008E77ECCF2091E40059
:1033E0003091E50095E6A9012091EC00822F8170D3
:1033F00020FF06C08091E80080FF06C080E00895AD
:103400002091E80022FD1AC080919F02882389F054
:10341000853089F08091EB0085FD0FC02091E4009C
:103420003091E50042175307F9F29150E1F684E03C
:10343000089582E0089583E0089581E008950E9450
:103440008E1A0E94961AE0EEF0E0808181608083FF
:10345000E8EDF0E080818F77808319BCA7EDB0E0C4
:103460008C918E7F8C9380818F7E808310929E02C0
:1034700008950F931F93CF93DF930E948E1A0E949B
:10348000961AC8EDD0E088818F778883888180681C
:10349000888388818F7D888319BC10929F02109247
:1034A0009B0210929D0210929C0200EE10E0F80127
:1034B00080818B7F808388818160888342E060E0A7
:1034C00080E00E949B19E1EEF0E080818E7F808396
:1034D000E2EEF0E08081816080838081886080837B
:1034E000F80180818E7F8083888180618883DF916D
:1034F000CF911F910F910895E8EDF0E080818F7ECC
:103500008083E7EDF0E080818160808384E082BF8A
:1035100081E080939E020E94391A0895E8EDF0E060
:1035200080818E7F80831092E20008951092DA00ED
:103530001092E10008951F920F920FB60F9211247E
:103540002F933F934F935F936F937F938F939F93AB
:10355000AF93BF93EF93FF938091E10082FF0BC085
:103560008091E20082FF07C08091E1008B7F809311
:10357000E1000E94FA1C8091DA0080FF19C080915E
:10358000D80080FF15C08091DA008E7F8093DA002A
:103590008091D90080FF96C080E189BD82E189BD1C
:1035A00009B400FEFDCF81E080939F020E94D816EF
:1035B0008091E10080FF19C08091E20080FF15C07A
:1035C0008091E2008E7F8093E2008091E200806132
:1035D0008093E2008091D80080628093D80019BC6B
:1035E00085E080939F020E94EF168091E10084FFA6
:1035F0002BC08091E20084FF27C080E189BD82E179
:1036000089BD89B5982F917080FFFBCF8091D8003C
:103610008F7D8093D8008091E1008F7E8093E100C0
:103620008091E2008F7E8093E2008091E2008160D1
:103630008093E20080919B02882309F449C084E0D2
:1036400080939F020E94F8168091E10083FF29C0B9
:103650008091E20083FF25C08091E100877F809305
:10366000E10082E080939F0210929B028091E10032
:103670008E7F8093E1008091E2008E7F8093E20054
:103680008091E20080618093E20042E060E080E0AF
:103690000E949B198091F00088608093F0000E9446
:1036A000E916FF91EF91BF91AF919F918F917F911B
:1036B0006F915F914F913F912F910F900FBE0F909F
:1036C0001F90189519BC10929F020E94E61670CFA9
:1036D0008091E30087FD93E090939F02B3CF1F9208
:1036E0000F920FB60F9211242F933F934F935F9336
:1036F0006F937F938F939F93AF93BF93CF93DF93FA
:10370000EF93FF93D091E900DF708091EC00C82F18
:10371000C17080FDC0E81092E9008091F000877FC1
:103720008093F00078940E94B31B1092E90080917E
:10373000F00088608093F000CD2BCF70C093E9003B
:10374000FF91EF91DF91CF91BF91AF919F918F91B9
:103750007F916F915F914F913F912F910F900FBE8D
:103760000F901F901895AAE2B0E0E9EBFBE10C94F2
:103770002B1D80EA92E02091F100FC012193CF0102
:10378000F2E0883A9F07B9F70E9418178091E80085
:1037900083FF1EC18091A0029091A1029A3008F08F
:1037A00017C1E92FF0E0E850F24E0C94161D803856
:1037B00099F0823809F00CC18091A4028F70873093
:1037C00008F006C18093E9008091EB0085FB882713
:1037D00080F91092E90006C080919C0290919D02B0
:1037E000911182609091E800977F9093E800809318
:1037F000F1001092F1008091E8008E77E5C08823F7
:1038000009F4D3C0823009F0E3C08091A202811193
:10381000D6C08091A4028F702FEF280F263008F0B9
:10382000D7C08093E9002091EB0020FFC8C09330FF
:1038300031F48091EB0080628093EB00C0C09091E6
:10384000EB0090619093EB0021E030E001C0220F8B
:103850008A95EAF72093EA001092EA008091EB0043
:103860008860EACF8111B4C01091A2021F778091C5
:10387000E3008078812B8093E3008091E800877FCC
:103880008093E8000E94CF198091E80080FFFCCF70
:103890008091E30080688093E30082E0111183E06F
:1038A00080939F0295C08058823008F091C080912B
:1038B000A2029091A3028C3D23E09207A1F583E040
:1038C0008A838AE289834FB7F894DE01139620E059
:1038D0003EE051E2E32FF0E050935700E49120FFE7
:1038E00003C0E295EF703F5FEF708E2F90E0EA30FB
:1038F000C0F0C7968D939D932F5F243159F74FBF2A
:103900008091E800877F8093E8006AE270E0CE0152
:1039100001960E94DE188091E8008B778093E80082
:1039200057C0C096E7CF6091A4027091A502AE0186
:103930004F5F5F4F0E941918BC01892B09F448C0E2
:103940009091E800977F9093E80089819A810E9486
:103950003C19E1CF8038E1F58091E800877F8093C2
:10396000E80080919B028093F10045CF811130C027
:103970009091A202923060F58091E800877F809359
:10398000E80090939B020E94CF1980919B028823AC
:1039900011F084E005C08091E30087FDFACF81E05B
:1039A00080939F020E94031713C08091A20281306E
:1039B00079F481E0933009F080E080939D021092C9
:1039C000E9008091E800877F8093E8000E94CF198A
:1039D0008091E80083FF0AC08091E800877F809390
:1039E000E8008091EB0080628093EB00AA96E3E010
:1039F0000C94471D0895CF9380919F028823A1F0D6
:103A0000C091E900CF709091EC00892F817090FDFA
:103A100080E8C82B1092E9008091E80083FD0E94A5
:103A2000B31BCF70C093E900CF910895EE0FFF1F35
:103A30000590F491E02D09942F923F924F925F925E
:103A40006F927F928F929F92AF92BF92CF92DF92AE
:103A5000EF92FF920F931F93CF93DF93CDB7DEB713
:103A6000CA1BDB0B0FB6F894DEBF0FBECDBF0994A7
:103A70002A88398848885F846E847D848C849B84FE
:103A8000AA84B984C884DF80EE80FD800C811B810C
:103A9000AA81B981CE0FD11D0FB6F894DEBF0FBE3B
:103AA000CDBFED010895FB01DC0104C08D910190B3
:103AB000801921F441505040C8F7881B990B089594
:103AC000FB01DC0102C001900D9241505040D8F73B
:103AD0000895F999FECF92BD81BDF89A992780B5D6
:103AE0000895A6E1B0E044E050E00C94B31DA8E1D5
:103AF000B0E042E050E00C94B31DDC01A40FB51F10
:103B00004150504048F0CB01840F951F2E910E94E8
:103B10008E1D41505040D0F70895262FF999FECFC1
:103B200092BD81BDF89A019700B4021639F01FBA10
:103B300020BD0FB6F894FA9AF99A0FBE089503962D
:103B4000272F0E948E1D0E948D1D252F0E948E1DE5
:103B5000242F0C948E1D0196272F0E948E1D0C94ED
:103B60008D1DDC01CB01FC01F999FECF06C0F2BD31
:103B7000E1BDF89A319600B40D9241505040B8F72B
:103B80000895F894FFCF1D051D056D056D05D2053F
:103B90004C054C054C05EE055F066E066E0696124A
:103BA0000A139E1268126C12A2127012A612B2129E
:103BB0007C1203138012B6128412BA12E212881217
:103BC000BE12E9128E12C412CC127412AA1278120A
:103BD000AE129212C812D812F212011362129A1285
:103BE00011139B13A1138A139513A713AD13B313CA
:103BF000D71BFF1BE81CFF1BE81C321C531CE81CD6
:043C0000AA1CB61C28
:103C040028024802000001008F15C216BB168F1649
:103C1400B416E200E900EA00B500B600B700CD0032
:103C24008301CC008A01920194012102230224021F
:103C34002502260227022A02B300B4006F00700096
:103C44009F01CB019F02A002818283E200E900EA86
:103C540000B500B600B700CD008301CC008A019204
:103C64000194012102230224022502260227022AAA
:103C740002B300B4006F0070009F01CB019F02A04B
:103C8400028182833332363534C69766F4F5F6F70B
:043C94003194909146
:00000001FF
