:100000000C943E020C945B020C945B020C945B0219
:100010000C945B020C945B020C945B020C945B02EC
:100020000C945B020C945B020C94D21A0C94A61BE9
:100030000C94FF150C945B020C945B020C945B0215
:100040000C945B020C945B020C945B020C945B02BC
:100050000C945B020C9486160C945B020C945B026D
:100060000C945B020C945B020C945B020C945B029C
:100070000C945B020C945B020C945B020C945B028C
:100080000C945B020C945B020C945B020C945B027C
:100090000C945B020C945B020C945B020C945B026C
:1000A0000C945B020C945B020C945B0214001A002B
:1000B0000800150017001C0018000C0012001300A7
:1000C0002A0004281624072209210A000B000D31FA
:1000D0000E320F243338C352E1001D001B0006000E
:1000E00019000500110010003400380028002B0012
:1000F0002900E000E20036002C412C4200003700CD
:10010000E30000001E001F00200021002200230049
:10011000240025002600270000003B003C003D0095
:100120003E003F00400041004200430044004500C3
:100130001E001F00200021002200230024002500B3
:1001400026002700645201000100010001000100A7
:1001500001000100655201000100010001003A00A8
:100160000100007C01000100E3000000010001002B
:100170000000010001000100010001000100010078
:1001800001000100010000002F0030002F023002AA
:10019000310231002E022D022D002E004C001E02D5
:1001A0001F0220022102220223022402250226022B
:1001B000270201000100010001000100010001000F
:1001C00001000100010001000100010035000100F3
:1001D0000100010001000100000001000100000019
:1001E0000100010001000100010001000100010007
:1001F00001000100000014001A000800150017009B
:100200001C0018000C00520013002A000400160005
:10021000070009000A000B000D00500051004F00BC
:100220000100E1001D001B0006001900050011007F
:1002300010003400380028002B002900E000E20004
:1002400036002C002C0000003700E30000001E00E8
:100250001F0020002100220023002400250026008A
:100260002700000014001A000800150017001C00E9
:1002700018000C00120013002A00040016000700EA
:1002800009000A000B000D000E000F003300C452DD
:10029000E1001D001B000600190005001100100000
:1002A0003400380028002B0029003600E200E0006E
:1002B0002C002C0000003700E30000001E001F008F
:1002C0002000210022002300240025002600270012
:1002D000000014001A000800150017001C00180088
:1002E0000C00520013002A00040016000700090049
:1002F0000A000B000D00500051004F00C552E100F4
:100300001D001B000600190005001100100034003C
:10031000380028002B002900E000E2003600E2004F
:100320002C0000003700E30000001E001F0020002A
:1003300021002200230024002500260027000000C1
:100340001C03740061006E0075006B0069005F00A3
:100350006700610073006B006500740000001A0301
:100360004700750073007400610076006F00200084
:100370004300680065006E000000040309040902E0
:100380003B00020100A0FA09040000010301010082
:100390000921110100012244000705810308000121
:1003A00009040100010300000009211101000122DC
:1003B0006D00070582032000011201000200000009
:1003C00008EDFE646401000102000105010980A13D
:1003D00001850319012AB700150126B7009501759B
:1003E000108100C0050C0901A101850419012AA092
:1003F00002150126A002950175108100C0050109B2
:1004000006A1018506050719E029E71500250195D4
:1004100008750181020507190029EF1500250195CE
:10042000F0750181020508190129059505750191ED
:1004300002950175039101C005010906A101050797
:1004400019E029E71500250195087501810295013C
:10045000750881010507190029FF150026FF009581
:100460000675088100050819012905150025019563
:100470000575019102950175039101C011241FBEFC
:10048000CFEFDAE0DEBFCDBF11E0A0E0B1E0E2E700
:10049000FCE302C005900D92A439B107D9F722E020
:1004A000A4E9B1E001C01D92A83AB207E1F70E94A9
:1004B00010120C94F81D0C9400000E94220D609301
:1004C0007D0270937E0280937F0290938002089554
:1004D00010927D0210927E0210927F021092800292
:1004E00060E070E0CB010E94270D08958630B8F4DB
:1004F0006530A8F44B3098F450E09BE0699F400DC4
:10050000511D1124FA0197E3899FE00DF11D11247B
:10051000EE0FFF1FE455FF4F85919491089581E000
:1005200090E008950E947602089581E008950E9467
:100530009502089581E008950E94950208950E9411
:100540009C02089508950E94A2020895A6E0B0E0DA
:10055000ECEAF2E00C94621D49835A839E83309149
:100560009B0189819A8131111AC03E81332399F010
:10057000222389F00E949E08182F682F89819A8172
:100580000E947A0869817A81812F0E94AD0F269698
:10059000E3E00C947E1D0E948C08182FF3CF0E947C
:1005A0009E0869817A81F1CFFC01262F408151811B
:1005B00062817381848195810E94A6020895CF9300
:1005C000DF93EC0161E00E94D402BE010E94970219
:1005D000DF91CF910895CF93DF93EC0160E00E940B
:1005E000D402BE010E94A302DF91CF91089521E0C1
:1005F00030E0A90102C0440F551F8A95E2F7CA01F5
:100600000E949C070895CF93C82F81E090E00C2EA4
:1006100002C0880F991F0A94E2F70E940A0D8C2FDE
:100620000E94F702CF91089581E008950E9414037B
:100630000895CF93C82F0E944F078C2F0E94160356
:100640002FEF84E39CE0215080409040E1F700C010
:100650000000CF91089581E00E9419030E94AA161C
:10066000089580E00E9419030E94BB1608950F931D
:100670001F93CF93DF938C0161E00E94D402EC01C1
:10068000B8010E949F02811106C080E0DF91CF91E6
:100690001F910F910895B801CE010E94B5138823D0
:1006A000A1F3B801CE010E947512882371F3B8013D
:1006B000CE010E944B12882341F3B801CE010E9463
:1006C000B110882311F3F8018581882361F0C330CC
:1006D000FCE7DF07E9F058F4C115ECE7DE07A9F005
:1006E000C130DC47B9F0C8010E949A02CFCFCB35A8
:1006F0008CE7D807A9F0CC35ECE7DE0771F0CA35F6
:10070000DC4789F70E94E50CEECF0E942B03BDCF9A
:100710000E94ED0C0E943103B8CF0E94DB0CE3CFA6
:100720000E94E90CE0CF0E94DB150E94B3030895FC
:100730000E94B7030E94E015089581E0089508958E
:10074000CF93DF93D82F0E949D03C82F882319F0E1
:100750008D2F0E949F038C2FDF91CF9108950895D4
:100760000E94A003089580E00E94B00308950E94B3
:10077000FE130E94B0030895CF930E94FE13C82F6A
:10078000809196018C1779F0C09396010E946B16A8
:1007900060939701709398018093990190939A01C7
:1007A0008C2F0E94B003CF910895ADE0B0E0EBED47
:1007B000F3E00C94631D488759876A877B878C8791
:1007C0009D8791110E94EB0B1F8286E0FE013896F7
:1007D000DE01119601900D928A95E1F78D818111CC
:1007E0000DC029813A814B815C816D817E818F8131
:1007F0000E94350B2D96E2E00C947F1DCE010196F0
:100800000E94DF028111EDCFF5CFFC012481213060
:1008100021F4808191810E94D0080895CF93C82F40
:100820008823C9F08238C9F40E940B1481FD13C0DB
:1008300089E30E941F150E947F0C2FEF87EE93E043
:10084000215080409040E1F700C0000089E30E9401
:1008500039150E947F0CCF9108958338A1F40E942E
:100860000B1480FDF8CF83E50E941F150E947F0CBA
:100870002FEF81EE94E0215080409040E1F700C0DE
:10088000000083E5E4CF8438A1F40E940B1482FDBC
:10089000E2CF87E40E941F150E947F0C2FEF81EEAC
:1008A00094E0215080409040E1F700C0000087E4D0
:1008B000CECF8CEF8C0F813A70F48C2F0E94931462
:1008C000882329F08C2F0E9439150E947F0C8C2FD1
:1008D0000E941F15BECF80E28C0F883048F4C7708D
:1008E00081E001C0880FCA95EAF70E94CE0BB1CF14
:1008F000EBE5EC0FE33040F4F0E0E85BFE4F808185
:1009000090E00E942714A7CFC85ACB3108F0A3CF9C
:10091000EC2FF0E0EE0FFF1FEE5EFE4F8081918125
:100920000E944C1498CF882309F44DC0823879F482
:100930000E940B1481FF47C089E30E941F150E948B
:100940007F0C89E30E9439150E947F0C089583383B
:1009500059F40E940B1480FF36C083E50E941F15D6
:100960000E947F0C83E5EECF843859F40E940B146B
:1009700082FF29C087E40E941F150E947F0C87E434
:10098000E1CF9CEF980F913AE8F290E2980F9830FF
:1009900050F4877091E001C0990F8A95EAF7892F8A
:1009A0000E94D40BD1CF9BE5980F933028F490E0B0
:1009B00080E00E9427140895885A8B3120F490E03B
:1009C00080E00E944C1408951F93CF93DF93182F5B
:1009D000EB010E940E04209739F4812F0E949304AA
:1009E000DF91CF911F9108958FE99FE00197F1F773
:1009F00000C000002197EFCF70E060E0893311F470
:100A000060E570E00E94E4040895882321F00E94CC
:100A1000CE0B0E947F0C0895882321F00E94D40BF6
:100A20000E947F0C0895B0E0A0E0E9E1F5E00C94AD
:100A30005C1D6C01D62FC72FFC0115810681029524
:100A40000F700E94C40BE82E8823F9F0E12E1123C9
:100A5000E1F08C2F807F803461F080E28D0F883050
:100A600008F18C2F807E803221F4D230D8F0002320
:100A7000C9F08091820282FF15C082E00E94AF0C13
:100A80000E94C40B91E0E82EE926BC2EB2949FE0B0
:100A9000B922FBE0FB15B8F1EB2DF0E0E650F24E89
:100AA0000C944D1DE12CF1CF0C2F0F70C07F11F075
:100AB0000295007F112399F0002359F080E28D0FF9
:100AC000883010F0D11107C0802F0E94CE0B0E94F9
:100AD0007F0C8D2F5AC0802F0E94DE0BF8CF8D2FF8
:100AE0000E949304002379F080E28D0F883010F08B
:100AF000D11104C0802F0E94D40B03C0802F0E940C
:100B0000E40B0E947F0CEB2DE850FF0B349720F490
:100B10000E94FE130E94B003EE2089F00E94C00BD9
:100B200080FD0DC0F60115820E94BA0B0E94D80705
:100B3000C6010E941A070E94BA0B0E94E807CDB7AF
:100B4000DEB7E9E00C94781D2C2F2F70F22EC07FB9
:100B5000C03219F0F29480EFF822DD2341F0D13059
:100B6000D1F1112309F444C00023F1F0B2CF8091F8
:100B7000820282FD15C0112359F0FF2029F08F2D2C
:100B80000E94CE0B0E947F0C80E00E940E04BBCF1F
:100B900080E00E949304FF2009F4B5CF8F2DABCFE6
:100BA000112369F0011104C08F2D0E940505ABCF00
:100BB000013009F0A8CF8F2D0E94020CA4CF0111A3
:100BC000A2CF8F2D0E940C058F2D0E940E0C8F2D11
:100BD0000E94F20B98CF112321F0033008F093CF3D
:100BE000E3CF023008F08FCF8F2D0E940C058BCF02
:100BF0000023D1F3D93349F43FEF87EE93E031502E
:100C000080409040E1F700C000008D2F0E949304C7
:100C10007ACF8C2F86958695837069F0813009F0A4
:100C200072CF8D2F9C2F9370111102C080E090E045
:100C30000E944C1468CF8D2F9C2F9370111102C00D
:100C400080E090E00E9427145ECF8C2F8370A1F586
:100C5000111159CF4D2F429546954770440F440FBF
:100C60002D2F2F7030E0042E02C0220F331F0A9464
:100C7000E2F790E080E0D4FF09C08FE090E002C08E
:100C8000880F991F4A95E2F780959095C695C6956D
:100C9000C370822B932BC23049F058F4C13019F045
:100CA0000E94A80730CF0E949F072DCF0E94B10756
:100CB0002ACF0E949C0727CF8695112311F08C2FF5
:100CC0008170882309F41FCF4D2F429546954770B8
:100CD000440F440F2D2F2F7030E0042E02C0220F3E
:100CE000331F0A94E2F790E080E0D4FF09C08FE060
:100CF00090E002C0880F991F4A95E2F78095909581
:100D0000C695C695C370822B932BC23049F058F418
:100D1000C13019F00E941308F6CE0E940A08F3CEE3
:100D20000E941C08F0CE0E94C007EDCECF701123A8
:100D300029F08C2F0E94D8078D2F37CF8D2F0E943E
:100D40000C058C2F0E94E807DECED23F41F160F403
:100D5000D03FB9F0D13F81F0112309F443C0011114
:100D6000B8CE8C2F8F711FC0D33F01F1D43FA1F7B4
:100D70008091820282FD24C08C2F8F71112311F388
:100D800012C0112341F0023008F0BDCE8C2F8F71BC
:100D90000E94FA07B8CE033008F0B5CEF7CF8C2FFB
:100DA0008F711111CFCF0E94D807ADCE112329F03A
:100DB0008C2F8F710E94CC07A6CE0E94C707A3CEAE
:100DC000112331F063E08C2F8F710E94910C9BCE28
:100DD00081E00E94AF0C023008F495CE82E00E94C0
:100DE000AF0C91CE002359F0D93309F00ECFEFEFBD
:100DF000F7EE23E0E150F0402040E1F704CF8C2FE4
:100E00008F71A0CF0F931F93CF93DF93EC01688175
:100E100079818D810E94DB088C010E9425080E9447
:100E20009B07B801CE010E941305DF91CF911F915E
:100E30000F910895CF93DF93EC018C81882399F073
:100E4000CE010E943703811111C00E94C40B882378
:100E500051F08D81882339F08091820282FF03C096
:100E600082E00E94AF0CDF91CF910895CE010E94E5
:100E70000207CE010E94EB02F6CF90E080E00E94D4
:100E8000271490E080E00E944C140E94EB0B0E941B
:100E90007F0C08950E9453150E943D0708950E94FB
:100EA000DB0B0E944A07089592959F70963091F04F
:100EB00058F4925F9F70923058F4803F19F030F4EC
:100EC000883E30F481E008959A5FF4CF843FD1F3F7
:100ED00080E00895883EB0F3813FD1F7F3CFFC0165
:100EE0002481222339F0808191810E94D0080E94C0
:100EF0005407089580E00895A6E0B0E0E2E8F7E046
:100F00000C94631D2696E2E00C947F1DA7E0B0E0F0
:100F1000ECE8F7E00C94631D2796E2E00C947F1D4B
:100F200008950E94900708950E9491079093BB0135
:100F30008093BA01089508950E949407089520911E
:100F4000BA013091BB01822B932B0E949407089524
:100F50002091BA013091BB01822393230E94940710
:100F600008952091BA013091BB01822793270E94F6
:100F7000940708950E94900708950E94BA07089563
:100F80000E94BD079093B9018093B801089590E045
:100F900080E00E94C007089521E030E0A90102C06E
:100FA000440F551F8A95E2F7CA010E94C0070895B1
:100FB00021E030E002C0220F331F8A95E2F78091D2
:100FC000B8019091B901822B932B0E94C00708951C
:100FD00021E030E002C0220F331F8A95E2F720950E
:100FE00030958091B8019091B901822393230E949A
:100FF000C007089521E030E002C0220F331F8A9518
:10100000E2F78091B8019091B901822793270E945D
:10101000C00708952091B8013091B901822B932B1C
:101020000E94C00708952091B8013091B901822330
:1010300093230E94C00708952091B8013091B9010F
:10104000822793270E94C00708950895262F2770AE
:1010500091E001C0990F2A95EAF723E0769567950C
:101060002A95E1F7660F771F660F771FFA01E60FE3
:10107000F71F50E040E0682F70E08191DF01119789
:101080009B01042E02C0369527950A94E2F7217041
:1010900021952827292328272C934F5F5F4F443021
:1010A000510559F70895A82FA77023E096958795C5
:1010B0002A95E1F7880F991F880F991FFB01E80F08
:1010C000F91F50E040E080E0219130E00A2E02C09C
:1010D000369527950A94E2F721703327042E01C034
:1010E000220F0A94EAF7822B4F5F5F4F443051057D
:1010F00059F70895262F953070F48B3060F4682FDF
:1011000070E08BE0989F600D711D11244CE951E057
:10111000822F0E9426080895292F953068F48B307D
:1011200058F490E06CE971E03BE0239F800D911D45
:1011300011240E945308089580E00895B0E0A0E0D3
:10114000E4EAF8E00C945C1D7C010091B801109178
:10115000B9018091BA019091BB01082B192BCFE006
:10116000D0E0CC24C394D12CBC2EC6010C2E02C0DE
:10117000880F991F0A94E2F780239123892B49F461
:10118000219790F7B12C8B2DCDB7DEB7E9E00C9409
:10119000781DB7018C2F0E94B90F019789F3F3CF07
:1011A000CF93DF93EC010E949E08BE010E94B90F0D
:1011B000DF91CF9108951F93CF93DF93EB0190912F
:1011C0009B01992339F0CB010E94D008DF91CF9188
:1011D0001F910895882369F0CB010E949E08182F63
:1011E000682FCE010E947A08BE01812F0E94B90F9C
:1011F000EDCFCB010E948C08182FF6CF1F93CF9311
:10120000DF93C091BC0117E08091BD018C1304C035
:10121000DF91CF911F910895D0E01C9FF0011D9F99
:10122000F00D1124E254FE4F20813181428153811F
:101230006481758186810E9486072196C770E4CFFC
:101240002091F6013091F7014091F8015091F90198
:101250006091FA017091FB018091FC010E94860768
:101260000895CF93DF938091FC01807F09F04DC0FA
:101270008091FB01882309F448C0E091BC015091A2
:10128000BD01C091F701D091F6016091F801709114
:10129000F90147E05E17C9F18E2F90E0E49FF0015D
:1012A0001124E254FE4F2481222391F1489FF00142
:1012B000499FF00D1124DF01A254BE4F11962C91CD
:1012C00011972C1325C02C912D1322C015962C910B
:1012D000159721111DC012962D913C91261B370B9D
:1012E00026393105A8F48091FC018F7080618093CC
:1012F000FC01EC53FE4F80818F708061808386EF0C
:1013000091E00E941A070E94FE08DF91CF91089594
:10131000FC013196E770BECF482F2091BC0190911F
:10132000BD0157E0291302C080E0089530E0529FCC
:10133000F001539FF00D1124E254FE4F8181681398
:1013400006C08081481303C085818111EECF2F5FD5
:101350003F4F2770E7CFA4E1B0E0E1EBF9E00C9458
:10136000591D8C0186E0F801DE011F9601900D9257
:101370008A95E1F7F8018481E58096EFA92E91E046
:10138000B92E9091FA0191111FC08823D1F0EE205F
:10139000A9F0C8010E946F07F82E882379F087E032
:1013A000F801D50101900D928A95E1F7C5010E94DF
:1013B00005040E9431090E9420095FC0C8010E94F3
:1013C0001A07FF24F39459C0C080D1808280938093
:1013D000F090FB012091F8013091F901A401421B2A
:1013E000530BFF2009F4F9C04639510508F0A7C096
:1013F000882309F442C09091F7018091FC01282FC5
:10140000207F09F05CC09D1116C09091F601C912B1
:1014100012C0E1104EC08F7080618093FC010E9469
:10142000200986EF91E00E941A078091FC01F801E3
:101430008683F12C22C0E1103CC06D2D8C2D0E94C2
:101440008C096D2D8C2D0E948C09E82E8111F1CF15
:10145000CF86D88A8F8598890E94D008292F229517
:101460002F70243078F49F702230A8F09923B9F0BF
:10147000F8019681907F99F4FE2C8F2D6496ECE014
:101480000C94751D2A5F2F70223068F0C8010E94ED
:101490001A07EF2CF1CF992311F0882369F3805EAE
:1014A000883050F3F3CF803F38F3815F833070F79B
:1014B000E3CF8091FC0181608093FC01BACF9D1144
:1014C00013C09091F601C9120FC0E1100DC08683C0
:1014D000C8010E941A0787E0F801A6EFB1E0019069
:1014E0000D928A95E1F767CFC8010E946F078823A4
:1014F00009F464CFEE2009F461CF8091FC018032C1
:1015000088F02091F6013091F701398728879B8672
:101510008A869091FA019C871D868E87CE01089657
:101520000E941A0787E0F801A6EFB1E001900D9242
:101530008A95E1F70E9431090E94200942CF9091DB
:10154000FC01292F207FA1F4682D9A8A898AA6019F
:101550007A899E2D0E947C0786EF91E00E941A07EF
:1015600087E0F50111928A95E9F70E94200961CF81
:10157000882309F482CF8091F7018D1110C08091EA
:10158000F601C8120CC0E1100AC09683C8010E947F
:101590001A0787E0F50111928A95E9F76ECFC80125
:1015A0000E946F07882309F409CFEE2009F406CFC3
:1015B0008091FC01803208F4B5CF2091F601309182
:1015C000F7013A8329839C828B829091FA019D8353
:1015D0001E828F83CE010196A3CF46395105B8F5FF
:1015E000882309F4EECEFE2CEE2009F4E7CE80919C
:1015F000F7018D111EC08091F601C8121AC08091AA
:10160000FC0180FD0DC0982F907F51F08683903FA4
:1016100009F45ECF982F907F905F8F70892B57CF02
:1016200087E0F801A6EFB1E001900D928A95E1F70D
:1016300024CFC8010E946F07811174CF8091FC01F3
:1016400081608093FC01C8010E941A0716CF682DA3
:101650009A8A898AA6017A899E2D0E947C0787E052
:10166000F50111928A95E9F7A6CEAEE0B0E0EBE382
:10167000FBE00C94621D288739874A875B876C875B
:101680007D878E87CE0108960E94AB098823B1F032
:101690006C85662341F0288539854A855B857D8583
:1016A0008E850E94860717E08091BC019091BD0154
:1016B00089133DC02E96E3E00C947E1D87E0FE0169
:1016C0003896DE01119601900D928A95E1F78C858E
:1016D000882349F32091BD0130E0C901019687704C
:1016E00099274091BC014817190699F097E0929FFD
:1016F000D001939FB00D1124A254BE4FFE0131962C
:1017000001900D929A95E1F78093BD010E94FE0829
:10171000CACF0E944F071092BD011092BC0187E012
:10172000E6EFF1E0DF011D928A95E9F7BCCF819FDA
:10173000C001112482549E4F0E94AB09882309F4F2
:10174000B9CFE091BC011E9FF0011124E254FE4F7D
:1017500020813181428153816481758186810E941B
:1017600086078091BC0190E001968770992780934D
:10177000BC019ACF8091250286958695869508951D
:10178000809125028770089590912502977081E0DD
:1017900009F480E0089580915102089590915102DA
:1017A000892B80935102089580959091510298233E
:1017B0009093510208951092510208959091500211
:1017C000892B809350020895809590915002982320
:1017D00090935002089510925002089508950E9427
:1017E000EE0B089590912602292F282331F0809541
:1017F0008923809326020E94EF0B089508950E948A
:10180000FE0B089590912702292F2823281729F0ED
:10181000982B909327020E94FF0B08959091270226
:10182000292F282331F080958923809327020E9455
:10183000FF0B089580912702882329F01092270238
:1018400080E00E94FF0B0895CF93C09151028091D8
:101850005002C82B80912702882331F0C82B0E94A8
:10186000711481110E941A0C8C2FCF910895CF937F
:10187000DF93C0910201D09103010E94240C888360
:10188000C0910201D091030148E050E06DE172E0A7
:10189000CE010E948A1D892B59F088E0FE01ADE13E
:1018A000B2E001900D928A95E1F7CE010E940E14EC
:1018B000DF91CF910895CF93DF93C0910001D09134
:1018C00001010E94240C8983C0910001D091010183
:1018D00040E250E06DEF71E0CE010E948A1D892B3D
:1018E00059F080E2FE01ADEFB1E001900D928A95D2
:1018F000E1F7CE010E941914DF91CF9108950E9463
:10190000B615813039F48091810287FF03C00E94AF
:101910005B0C08950E94370C089508950E948D0C69
:1019200008959091820292FF11C098E0899F9001E2
:101930001124622B609325020E94D8078091250212
:101940008695869586950E948E0C08950E94D807EC
:1019500008951092250280E00E948E0C08959091C7
:1019600025028095892380932502282F277069F40A
:10197000891759F09091820292FF07C0869586954B
:1019800086950E94E8070E94A90C08959091820212
:1019900092FB222720F9281769F080FB92F9909397
:1019A000820280918102909182020E94150D82E054
:1019B0000E94AF0C08958091820282FB882780F9F3
:1019C00091E089270E94C60C089581E00E94C60C10
:1019D000089580E00E94C60C08956FEF7FEF90E0BD
:1019E00080E00E94E21D089590E080E00E94AE1D1C
:1019F00021E0853E9E4F09F020E0822F089582E08D
:101A000090E00E94A01D089583E090E00E94A01D38
:101A100090E00895682F83E090E00E94C41D08952F
:101A200084E090E00E94AE1D0895BC0184E090E047
:101A30000E94E21D0895AB01BC018FE090E00E947E
:101A4000D61D089583E190E00E94A81D0895AB0182
:101A5000BC0183E190E00E94D61D089560E070E033
:101A6000CB010E941B0D0E9468020895A8E0B0E01F
:101A7000ECE3FDE00C94631D65EE7EEF90E080E00A
:101A80000E94E21D60E082E090E00E94C41D81E0BF
:101A900090E09093BB018093BA010E940A0D60E030
:101AA00074E184E090E00E94E21D60E086E090E056
:101AB0000E94C41D60E087E090E00E94C41D40E0E9
:101AC00050E0BA0188E090E00E94D61D60E083E219
:101AD00090E00E94C41D60E08CE090E00E94C41D74
:101AE00060E08DE090E00E94C41D19821A821B8282
:101AF0001C821D821E821F82188648E050E067E12A
:101B000070E0CE0101960E94B41D40E050E0BA01A1
:101B10008FE190E00E94D61D0E942E0D2896E2E0F3
:101B20000C947F1D0E94360D0895682F8EE090E082
:101B30000E94C41D0895A6E0B0E0E1EAFDE00C9427
:101B4000611D0E945F168C01809152029091530298
:101B50008017910781F019821A820E945F16682F00
:101B600049815A81792F80E090E00E94D50310933B
:101B70005302009352022696E4E00C947D1D0E94CD
:101B80006B16609362027093630280936402909379
:101B9000650260935E0270935F028093600290938F
:101BA00061020895089508950E94D20D08950E943B
:101BB0005D0208958FEA90E10E9425120E94D30DE4
:101BC0000E94D40D089581E008950E94E30D0895C8
:101BD0000E94E30D0895089508950E94EB0D0E9460
:101BE000EC0D08950E94F40C811102C00E94920D28
:101BF0000E94FF0C809366020E94100D9093820257
:101C0000809381020E9448120E94040D0E949C074A
:101C10008091B8019091B9010E94BD0708950E947A
:101C200056160E9480110E94F20D0E94AF030E947E
:101C3000D70D0895A6E0B0E0E0E2FEE00C94571D59
:101C40000E94E50D811108C00E949B0D0E94BC03FB
:101C50002696EEE00C94731D0E94961124E5822EC8
:101C600022E0922E640110E0F601E190F1906F0104
:101C7000812F0E94CB101F5F153009F44BC0E8166E
:101C8000F90691F38091660281FD0E94D4100E94B2
:101C9000E80D782E10E066246394812F0E94CB100B
:101CA0007C01F401A190B1904F018A159B0561F16F
:101CB000A826BF2400E0CC24C394D12CC5018C21DC
:101CC0009D21892BC1F07720B1F009831A830E94EE
:101CD0005F169C838B836D8221E0C7018C219D213F
:101CE000892B09F420E049815A816B817C818D81A7
:101CF000922F0E94D5030F5FCC0CDD1C0B30F1F648
:101D0000F4013297F182E0821F5F153031F60E94B4
:101D1000BF0D9CCFE816F90609F0B4CF95CF1F93FD
:101D2000CF93DF930E94BE0FEC01C11580E5D80769
:101D3000F0F5C11580E4D80708F09CC0C03ED1057D
:101D400020F5CD3CD10508F082C0C83AD10578F421
:101D5000C53AD10508F073C0C130D10519F12097FB
:101D600009F1C430D105F0F4D0E0C0E01BC0C33CA1
:101D7000D105D0F7C85AD0E0CC0FDD1FC55BDE4FD0
:101D80000990D881C02DD4640DC0C11580E2D80758
:101D900008F0D1C0C11581E0D80708F05AC0C83E8C
:101DA000D10510F7CE01DF91CF911F910895C03674
:101DB00082E5D80718F5C03482E5D80708F06BC073
:101DC000C03282E5D80708F05FC0C11582E5D807A8
:101DD00008F497C02C2F2695269580E2289F900125
:101DE00011248C2F8370C1E0D0E002C0CC0FDD1F26
:101DF0008A95E2F7C22BD32BDD68D4CFC03A82E5B7
:101E0000D80760F4C03882E5D80708F459C0CF710C
:101E1000D0E0DC2FCC27C46FD06AC4CFC03C82E5B1
:101E2000D80708F462C0C03E82E5D80708F09CCF0E
:101E3000DC2FCC27CC27DF71C06FD06AB3CFC55A57
:101E4000D0E0CF57DE4FC881D0E0D064ABCFD065B3
:101E5000A9CF8D2F0E946010182FCE0199270E94C4
:101E6000BE0FC12FD0E0DC2FCC27CC27DF71C82BD1
:101E7000D92B98CFCE0199270E94BE0FCC27DF70B7
:101E8000C82BD92BD06A8ECFCF71D0E0DC2FCC27D6
:101E9000C16FD06A87CF2C2F26952695277080E2B8
:101EA000289F900111248C2F8370C1E0D0E002C0E4
:101EB000CC0FDD1F8A95E2F7C22BD32BDC6872CFE3
:101EC0002C2F26952695277080E2289F90011124BB
:101ED0008C2F8370C1E0D0E002C0CC0FDD1F8A954B
:101EE000E2F7C22BD32BDA685DCF8C2F8F710E9463
:101EF0006010C82FD0E0DC2FCC27CC27DF71D06258
:101F000051CF8C2F8F710E94601055E0D695C795E8
:101F10005A95E1F7CF70D0E0DC2FCC27282F30E0A6
:101F200084FF05C044E0220F331F4A95E1F7C22B1E
:101F3000D32BD06937CF8D2F8F710E946010182F4F
:101F4000CE0199270E94BE0FC12FD0E0DC2FCC27F5
:101F5000CC27DF71C82BD92BD2CF462F753030F468
:101F60006B3020F4672F0E949202089590E080E089
:101F700008950E94AD0F0E948F0E0895823891053A
:101F8000B9F1B0F48133910509F47DC048F4893288
:101F9000910509F46DC08A32910509F47BC008955A
:101FA0008533910509F45FC08933910509F10895DE
:101FB000833E9105D9F138F4803E910529F1823EA6
:101FC000910579F10895863E9105D9F1873E9105F5
:101FD00009F43EC0843E910541F52091820221FF23
:101FE00024C08091810284FD19C087EE90E008959D
:101FF00020918102237009F05AC02091820223FFB0
:1020000014C089E290E008952091810220FD38C03B
:102010003091820230FF09C024FF43C090E080E08D
:1020200008952091810222FDF7CF08952091810229
:1020300022FD3AC03091820230FD39C024FFF5CF35
:10204000EDCF2091810223FFF0CF24FDE7CFCDCF4C
:102050002091810223FD2EC03091820231FFEECF0C
:1020600084EE90E008952091810225FFDECFC9CF54
:102070002091810225FD21C02091820223FFD5CF2E
:1020800089E390E0D2CF2091810226FFCECF8AE271
:1020900090E008952091810226FFC7CF81E390E070
:1020A000089583EE90E0089582EE90E0089580EE2A
:1020B00090E0089586EE90E0089585E390E008951D
:1020C0009091810292FF10C041E0282F24712430AA
:1020D00009F040E031E0282F2871283009F030E085
:1020E000431711F02CE0822793FF10C041E0282F06
:1020F0002471243109F040E031E0282F2871283183
:1021000009F030E0431711F02CE082273091820271
:1021100030FF10C051E0282F2171213009F050E02C
:1021200041E0282F2871283009F040E0541711F0C1
:1021300029E0822731FF10C041E0282F2171213191
:1021400009F040E031E0282F2871283109F030E013
:10215000431711F029E0822794FD877E089580E0DF
:102160000895CF939C01205E3245C1E020323105B5
:1021700038F4FB01C581C11103C08F710E940303B4
:102180008C2FCF91089508950E94C310089508954B
:102190000E94C7100895E82FF0E0EE0FFF1FE357ED
:1021A000FD4F808191810895089580EA8A95F1F725
:1021B000089500C008950E94D5100895F894E82F5E
:1021C000E295EF70F0E031A1282F2F7081E090E0D0
:1021D00001C0880F2A95EAF7982F9095932391A331
:1021E00092A1892B82A378940895CF93DF93CFE8AF
:1021F000D1E089918F3F11F00E94DE1081E0C43957
:10220000D807B9F7C4E8D1E089918F3F11F00E9457
:10221000DE1081E0CF38D807B9F7DF91CF9108956C
:10222000AF92BF92DF92EF92FF920F931F93CF93E3
:10223000DF938C01D62EC62FD0E0CE0181579E4F62
:102240007C01FC0120812F3F09F44DC0F894E22F5E
:10225000E295EF70F0E031A12F7081E090E001C0D5
:10226000880F2A95EAF7932F982B91A392A1809536
:10227000892382A378940E94D910E4E8F1E04FE822
:1022800051E021E030E0B12CA12C61916F3FA9F128
:10229000A62FA295AF70B0E090968C9190E06F70F1
:1022A00002C0959587956A95E2F780FD26C0C90121
:1022B000A82AB92A220F331F4E175F0731F7F701FB
:1022C00080818F3F11F00E94DE1061E0A114B10403
:1022D00009F460E08D2D0E94DB10CC0FDD1FC00FD4
:1022E000D11FB982A882DF91CF911F910F91FF90EA
:1022F000EF90DF90BF90AF90089590E080E0D8CF4E
:102300000E94F5108AE0EDE8F2E0DF01982F1D92BF
:102310009A95E9F7E3E8F2E0DF011D928A95E9F783
:1023200085E00E94D1110E94C4100895AAE0B0E097
:10233000ECE9F1E10C94601D8E010F5F1F4F8AE004
:10234000F80111928A95E9F7F12C6F2DC8010E94CE
:102350001011F394F5E0FF12F8CF4AE050E0B80115
:1023600083E892E00E948A1D21E0009709F420E0B2
:10237000892B41F08AE0F801A3E8B2E001900D92C8
:102380008A95E1F745E06DE872E083E892E00E940B
:10239000D211182F0E94C810812F2A96E5E00C94C4
:1023A0007C1D0895B0E0A0E0E8EDF1E10C945D1D26
:1023B0006C017B01042FC22F222379F081E08093EE
:1023C00069020E945F16909368028093670280E022
:1023D000CDB7DEB7E8E00C94791DD0916902DD231A
:1023E000B1F380916702909168020E947716059779
:1023F00070F310E0000F111FA801B601C7010E9481
:102400008A1D892B31F0A801B601C7010E94971DD2
:10241000CD2F109269028C2FDBCF0E941A0E0895E7
:102420000E94F8150E9409180E94DA0D0E942318D4
:102430000E940F0E0E9430180E9435180E940D1243
:102440000E944F180E94ED0DF7CF90939501809355
:10245000940108950E94ED0C089580E00E94CB1035
:10246000817008950E9496112FEF86E791E0215028
:1024700080409040E1F700C000000E9496110E9449
:102480002D12882321F00E942A120E94AA16089574
:102490000E9432120895CF93DF93EB0186319C475F
:1024A00011F50E94CB0B9D81992399F08A7A91E0D6
:1024B00009F490E090936A02811109C089E20E94B8
:1024C0001F150E947F0C80E0DF91CF91089585E376
:1024D000F6CF80916A02811104C089E20E94391509
:1024E000F0CF85E3FBCF81E0EFCFCF93DF93EC011B
:1024F000FB018581882309F4D2C09E013057233225
:10250000310508F0B2C00E94100D909382028093B2
:102510008102FE01E150F047E232F10520F4EA5F6A
:10252000F14E0C944D1D8091810281608093810257
:1025300093C0809182028860809382028DC08091D6
:1025400081028260F3CF809181028460EFCF80911D
:1025500081028860EBCF809182028160EDCF809113
:1025600082028260E9CF809181028061DFCF809119
:1025700081028062DBCF809181028064D7CF0E948C
:102580004F07809181028068D1CF809181028C6059
:10259000CDCF809182028360CFCF809181028E7FE8
:1025A000C5CF80918202877FC7CF809181028D7FC6
:1025B000BDCF809181028B7FB9CF80918102877FCF
:1025C000B5CF809182028E7FB7CF809182028D7FBE
:1025D000B3CF809181028F7EA9CF809181028F7DC0
:1025E000A5CF809181028F7BA1CF0E944F07809160
:1025F00081028F779BCF80918102837F97CF8091DB
:1026000082028C7F99CF8091810282FB992790F979
:1026100021E0922790FB82F990FB83F987CF80918C
:102620008202982F909591708E7F892B90FB81F973
:1026300083CF90918102892F8F7B96FF806476CF24
:102640000E944F0790918102892F97FB87F980584C
:102650006DCF81E00E94950D809181029091820260
:102660000E94150D0E944F0780E0DF91CF910895E1
:1026700080E0F0CF90918102892F8F7E94FF80615E
:1026800055CF90918102892F8E7F90FF81604ECF30
:1026900090918202892F877F93FF88604DCF81E0E0
:1026A000E4CF0F931F93CF93DF93C42FD22FFC015E
:1026B00085818823C9F040936D020E945F16909334
:1026C0006C0280936B0280E28C0F883040F4C770FC
:1026D00081E001C0880FCA95EAF70E940505DF91E5
:1026E000CF911F910F91089510916D02141332C074
:1026F00080916B0290916C020E9477168639910549
:1027000048F5C0E2CD0F1D17B9F080E2810F883087
:1027100040F4177081E001C0880F1A95EAF70E9413
:102720000C05C83048F481E09D2F977001C0880FD8
:102730009A95EAF70E940505802F0E94FC04C83094
:1027400070F6D77081E001C0880FDA95EAF70E9431
:102750000C05C5CF80E28C0F883008F6C77081E089
:1027600001C0880FCA95EAF7F2CF0F93DB018851B9
:102770009C4787309105A0F5FC01E85DF14E0C9473
:102780004D1D06E221EE41EE6AE17CE7CD010E949B
:10279000511380E00F91089507E225EE45EE6BE1BD
:1027A0007CE7F4CF06E221EE40EE68E17CE7EECF75
:1027B00007E225EE44EE69E17CE7E8CF06E221EE90
:1027C00042EE6CE17CE7E2CF07E225EE46EE6DE1FA
:1027D0007CE7DCCF08E221E045EE6EE17CE7D6CF76
:1027E00015968C91882319F010926D02D3CF81E059
:1027F000D1CF90937302809372020895E091720298
:10280000F0917302309729F00190F081E02D099545
:10281000089580E008950E94FE130895E0917202E9
:10282000F0917302309721F00280F381E02D099539
:102830000895E0917202F0917302309739F026E02A
:10284000DC012C930480F581E02D09950895A3E027
:10285000B0E0EDE2F4E10C94631D20917002309140
:10286000710228173907A1F09093710280937002CA
:10287000E0917202F0917302309751F023E02983C6
:102880009B838A830084F185E02DCE010196099512
:102890002396E2E00C947F1DA3E0B0E0E2E5F4E1D2
:1028A0000C94631D20916E0230916F022817390736
:1028B000A1F090936F0280936E02E0917202F0910A
:1028C0007302309751F024E029839B838A8300842C
:1028D000F185E02DCE01019609952396E2E00C9456
:1028E0007F1DCF93DF93C0910201D0910301229607
:1028F0000E94B615813081F48091810287FF0CC05F
:10290000C0910001D091010122969EE180E091509A
:1029100028F4DF91CF91089596E0F8CF29912223F2
:10292000B1F38F5FF4CFCF93C82F811102C080E045
:1029300024C00E94B615813011F58091810287FF75
:102940001EC0EC2FE695E695E695EE3180F7809176
:10295000000190910101E80FF92FF11D228130E073
:10296000C77081E090E002C0880F991FCA95E2F716
:102970002823392381E0232BD1F2CF910895809130
:10298000020190910301FC013296089621912C17C7
:1029900021F0E817F907D1F7CACF81E0EECF9C010B
:1029A000FC0132969FEF80E04191461751F09F3F26
:1029B00019F4411101C0982F8F5F8630A9F79F3F0E
:1029C00009F40895290F311D97FD3A95F9016283A5
:1029D0000895FC01329608962191261303C0DF0169
:1029E00011971C92E817F907B9F70895E62FE695B5
:1029F000E695E695EE3168F4E80FF92FF11D677062
:102A000021E030E001C0220F6A95EAF78281822B33
:102A100082830895E62FE695E695E695EE3170F40B
:102A2000E80FF92FF11D677021E030E001C0220F9F
:102A30006A95EAF720958281282322830895CF930F
:102A4000C82F0E94B6156C2F813061F480918102ED
:102A500087FF08C080910001909101010E94F61447
:102A6000CF91089580910201909103010E94CF14AB
:102A7000F7CFCF93C82F0E94B6156C2F813061F429
:102A80008091810287FF08C080910001909101012F
:102A90000E940A15CF91089580910201909103013F
:102AA0000E94E914F7CF0E94B615813079F4809125
:102AB000810287FF0BC0E0910001F0910101329685
:102AC0008EE1DF011D928A95E9F70895E0910201F8
:102AD000F0910301329686E0F4CF08950E946D15BF
:102AE000089581110EC081E0809307016091040177
:102AF0007091050180910601909107010E946E1569
:102B0000089582E0F1CF83E0809307016091040192
:102B10007091050180910601909107010E946E1548
:102B200008950E947115089581E0809307016091D6
:102B300004017091050180910601909107010E94A6
:102B40006E1508950E949415089591E0811101C0B9
:102B500090E09093060160910401709105018091CD
:102B60000601909107010E946E150895809106015B
:102B70000895809305016091040170910501809191
:102B80000601909107010E946E150895809105013C
:102B90000895809304016091040170910501809172
:102BA0000601909107010E946E150895809104011D
:102BB0000895089508950E94DA15089508950895D6
:102BC0000E94D9150895CF930E94DE150E94961198
:102BD0000E94DF15C0E08C2F0E94CB10892B31F4AE
:102BE000CF5FC530C1F780E0CF91089581E0FCCF81
:102BF00085B7806885BF85B7806885BF08951F92B7
:102C00001FB61F9211248F939F93AF93BF93809110
:102C10007402811113C08091970290919802A09143
:102C20009902B0919A024196A11DB11D809397021D
:102C300090939802A0939902B0939A02BF91AF919A
:102C40009F918F911F901FBE1F90189580919F029A
:102C5000843031F10E9493031092740288E190E075
:102C600020E40FB6F894A895809360000FBE2093DF
:102C7000600083B7817F846083BF83B7816083BF37
:102C80007894889583B78E7F83BF0FB6F894A89504
:102C900080916000886180936000109260000FBE98
:102CA00008950E944F070E949803089582E084BD12
:102CB00093E095BD9AEF97BD80936E0008952FB76E
:102CC000F8948091970290919802A0919902B09106
:102CD0009A022FBF08952FB7F894609197027091D0
:102CE00098028091990290919A022FBF08959C01B9
:102CF0004FB7F8948091970290919802A091990211
:102D0000B0919A024FBF821B930B089578941F9243
:102D10001FB61F9211248F939F93AF93BF938091FF
:102D2000970290919802A0919902B0919A0201960F
:102D3000A11DB11D8093970290939802A0939902D0
:102D4000B0939A02BF91AF919F918F911F901FBE38
:102D50001F90189587E797E79093010880930008E4
:102D600088E19AE00FB6F894A895809360000FBEB2
:102D700090936000FFCF88E19AE00FB6F894A89591
:102D8000809360000FBE90936000FFCF08959B0179
:102D9000BA0190919F029430E9F48F708093E9001A
:102DA0009FEF8091E800915085FD06C085ED8A95E2
:102DB000F1F700009111F5CF8091E80085FF0AC07E
:102DC00050E040E0C9010E94C6188091E8008E776B
:102DD0008093E800089543E050E0BC0182E00E9447
:102DE000C716089540E250E0BC0182E00E94C71679
:102DF0000895CF93DF93EC010E94B61548E050E0B0
:102E0000BE0181E00E94C71688E0FE01A5E7B2E09E
:102E100001900D928A95E1F7DF91CF91089580910D
:102E20009E02811109C00E94561A0E94B31A809115
:102E3000E20084608093E200089510929E0208955B
:102E40000E94941581E00E94A515089560919B024F
:102E500081E0611101C080E00E9483150895909186
:102E60009F0281E0943009F080E060919B020E9413
:102E70009115089542E061EC81E00E94D21942E28E
:102E800061EC82E00E94D21990919F0281E094301F
:102E900009F080E060919B020E9471150895809175
:102EA000A102833009F461C030F48130D1F1823065
:102EB00009F49EC008958A3009F48AC08B3009F461
:102EC0006FC0893009F050C08091A002813209F0B2
:102ED0004BC08091A4029091A502029708F044C0D3
:102EE0008091E800877F8093E8008091E80082FF6E
:102EF00037C09091F3008091F200029731F48091F5
:102F0000F100813011F0863021F48091F1000E94AF
:102F1000B9158091E8008B778093E8000E94061A2B
:102F200023C08091A002813AF9F48091E800877F64
:102F30008093E8008091A4029091A502892B61F40E
:102F400068E085E792E070E00E9415198091E80042
:102F50008B778093E800089560E090E080E0F3CF05
:102F600080919F028111C1CF08958091A002813A82
:102F7000D9F78091A4029091A502892BA9F780919D
:102F8000E800877F8093E8008091E80080FFFCCF15
:102F90000E94B6158093F1008091E8008E77BCCF37
:102FA0008091A002813201F78091A4029091A50244
:102FB000892BD1F68091E800877F8093E8000E94FA
:102FC000061A8091A2020E94A5150E944F0708953B
:102FD0008091A002813241F68091E800877F809342
:102FE000E8000E94061A8091A3020E94C915089564
:102FF0008091A002813A09F0B7CF8091E800877FE5
:103000008093E8008091E80080FFFCCF0E94D615F5
:10301000C1CF84B7877F84BF0FB6F894A8958091FD
:103020006000886180936000109260000FBE80E8AD
:1030300090E00FB6F89480936100909361000FBE0A
:103040000E94A21508950E94561A0E94B31AE2EE39
:10305000F0E080818460808378940E94321D08951E
:1030600088E091E00E94F913089580919F028530D5
:1030700031F480919F02853019F00E945116089515
:103080000E9426160E94E315882399F380919D02E1
:10309000882379F30E94B0180E944F07EACF089561
:1030A0009A014091A6025091A7020E9458180895D3
:1030B000492F55274330510519F168F44130510526
:1030C00009F444C04230510509F445C090E080E065
:1030D00050E040E025C04132510549F142325105EE
:1030E000A9F784E490E048E354E061157105C1F06C
:1030F0008DE690E04BEC53E06130710589F0E6CF4E
:1031000099278130910581F0009729F00297F1F617
:10311000E0E4F3E002C0EAE7F3E0849190E0AF017D
:10312000F901518340830895EEE5F3E0F6CF89E09D
:1031300090E040E953E06115710591F389E090E07A
:1031400049EA53E06130710559F3C0CF82E190E064
:1031500049EB53E0E5CF8BE390E04EE753E0E0CF5F
:1031600080E189BD82E189BD09B400FEFDCF809177
:10317000D8008F7D8093D8008091E000826080939A
:10318000E0008091E00081FDFCCF0895AF92BF92F6
:10319000CF92DF92FF920F931F93CF93DF936C0137
:1031A000EB018A010E94251AF82E811123C0011516
:1031B000110539F0F80180819181C81BD90BC80E27
:1031C000D91EB12CA12C2097A9F08091E80085FD93
:1031D00022C08091E8008E778093E80001151105E8
:1031E000A1F0F80180819181A80EB91EB182A08260
:1031F00085E0F82E8F2DDF91CF911F910F91FF90D9
:10320000DF90CF90BF90AF9008950E94251A882339
:10321000D1F2F82EEFCFF60181916F018093F1008A
:103220002197FFEFAF1ABF0ACECFFC018091A60213
:103230009091A70286179707A0F06115710529F4F0
:103240009091E8009E779093E80090E061157105F9
:1032500051F4911108C08091E80082FF34C080E0F1
:103260000895BC01F2CF80919F028823C1F185307F
:10327000C1F18091E80083FD30C08091E80082FDBB
:10328000EACF8091E80080FFE1CF8091F3002091A8
:10329000F200382F6115710519F02830310558F00A
:1032A00091E02830310509F090E02091E8002E7778
:1032B0002093E800CBCF81918093F1006150710998
:1032C0002F5F3F4FE7CF80919F02882341F08530E9
:1032D00041F08091E80083FFBECF81E0089582E055
:1032E000089583E00895FC018091A6029091A702C1
:1032F00086179707A0F06115710529F48091E80001
:103300008E778093E80090E06115710551F491117A
:1033100008C08091E80082FF35C080E00895BC01BC
:10332000F2CF80919F028823C9F18530C9F1809145
:10333000E80083FD31C08091E80082FDEACF8091F2
:10334000E80080FFE1CF8091F3002091F200382F58
:103350006115710519F02830310558F091E02830D9
:10336000310509F090E08091E8008E778093E800C5
:10337000CBCF84918093F1003196615071092F5F1A
:103380003F4FE6CF80919F02882341F0853041F086
:103390008091E80083FFBDCF81E0089582E0089529
:1033A00083E00895982F973028F08F708093E9007C
:1033B00081E008959093E900242F762F50E098172C
:1033C00031F07091EC002091ED005091F00021FD62
:1033D00002C09F5FE8CF3091EB003E7F3093EB005F
:1033E0003091ED003D7F3093ED003091EB00316086
:1033F0003093EB007093EC002093ED005093F000BD
:103400002091EE0027FDE5CF80E008958091A00295
:1034100087FF13C08091E80082FF06C08091E8001A
:103420008B778093E80004C080919F028111F2CFD6
:10343000089580919F028823D9F38091E80080FF4E
:10344000F8CF8091E8008E77ECCF2091E4003091A6
:10345000E50095E6A9012091EC00822F817020FF04
:1034600006C08091E80080FF06C080E008952091AA
:10347000E80022FD1AC080919F02882389F08530E0
:1034800089F08091EB0085FD0FC02091E400309120
:10349000E50042175307F9F29150E1F684E00895F0
:1034A00082E0089583E0089581E008950E94C51A9E
:1034B0000E94CD1AE0EEF0E0808181608083E8ED2B
:1034C000F0E080818F77808319BCA7EDB0E08C910C
:1034D0008E7F8C9380818F7E808310929E020895D0
:1034E0000F931F93CF93DF930E94C51A0E94CD1AAA
:1034F000C8EDD0E088818F77888388818068888351
:1035000088818F7D888319BC10929F0210929B0244
:1035100010929D0210929C0200EE10E0F801808152
:103520008B7F808388818160888342E060E080E0D7
:103530000E94D219E1EEF0E080818E7F8083E2EE7E
:10354000F0E0808181608083808188608083F801E1
:1035500080818E7F8083888180618883DF91CF9195
:103560001F910F910895E8EDF0E080818F7E8083B8
:10357000E7EDF0E080818160808384E082BF81E0BC
:1035800080939E020E94701A0895E8EDF0E0808119
:103590008E7F80831092E20008951092DA001092DC
:1035A000E10008951F920F920FB60F9211242F93EE
:1035B0003F934F935F936F937F938F939F93AF93BB
:1035C000BF93EF93FF938091E10082FF0BC0809146
:1035D000E20082FF07C08091E1008B7F8093E100D1
:1035E0000E94311D8091DA0080FF19C08091D800BF
:1035F00080FF15C08091DA008E7F8093DA00809181
:10360000D90080FF96C080E189BD82E189BD09B4FF
:1036100000FEFDCF81E080939F020E940F178091F2
:10362000E10080FF19C08091E20080FF15C0809109
:10363000E2008E7F8093E2008091E20080618093BF
:10364000E2008091D80080628093D80019BC85E0A8
:1036500080939F020E9426178091E10084FF2BC077
:103660008091E20084FF27C080E189BD82E189BDAD
:1036700089B5982F917080FFFBCF8091D8008F7D06
:103680008093D8008091E1008F7E8093E10080914B
:10369000E2008F7E8093E2008091E200816080935F
:1036A000E20080919B02882309F449C084E0809362
:1036B0009F020E942F178091E10083FF29C0809113
:1036C000E20083FF25C08091E100877F8093E100C5
:1036D00082E080939F0210929B028091E1008E7F96
:1036E0008093E1008091E2008E7F8093E2008091E0
:1036F000E20080618093E20042E060E080E00E94AE
:10370000D2198091F00088608093F0000E94201709
:10371000FF91EF91BF91AF919F918F917F916F91A9
:103720005F914F913F912F910F900FBE0F901F907F
:10373000189519BC10929F020E941D1770CF80919E
:10374000E30087FD93E090939F02B3CF1F920F9207
:103750000FB60F9211242F933F934F935F936F9364
:103760007F938F939F93AF93BF93CF93DF93EF9309
:10377000FF93D091E900DF708091EC00C82FC170F9
:1037800080FDC0E81092E9008091F000877F80936F
:10379000F00078940E94EA1B1092E9008091F000FA
:1037A00088608093F000CD2BCF70C093E900FF912B
:1037B000EF91DF91CF91BF91AF919F918F917F91C9
:1037C0006F915F914F913F912F910F900FBE0F908E
:1037D0001F901895AAE2B0E0E0EFFBE10C94621DA7
:1037E00080EA92E02091F100FC012193CF01F2E008
:1037F000883A9F07B9F70E944F178091E80083FF2E
:103800001EC18091A0029091A1029A3008F017C1C8
:10381000E92FF0E0E15DF14E0C944D1D803899F0F8
:10382000823809F00CC18091A4028F70873008F0B3
:1038300006C18093E9008091EB0085FB882780F921
:103840001092E90006C080919C0290919D02911116
:1038500082609091E800977F9093E8008093F10058
:103860001092F1008091E8008E77E5C0882309F47A
:10387000D3C0823009F0E3C08091A2028111D6C08A
:103880008091A4028F702FEF280F263008F0D7C048
:103890008093E9002091EB0020FFC8C0933031F401
:1038A0008091EB0080628093EB00C0C09091EB00B0
:1038B00090619093EB0021E030E001C0220F8A95E7
:1038C000EAF72093EA001092EA008091EB0088600A
:1038D000EACF8111B4C01091A2021F778091E3005A
:1038E0008078812B8093E3008091E800877F80932C
:1038F000E8000E94061A8091E80080FFFCCF8091CA
:10390000E30080688093E30082E0111183E08093FC
:103910009F0295C08058823008F091C08091A20229
:103920009091A3028C3D23E09207A1F583E08A8366
:103930008AE289834FB7F894DE01139620E03EE0D7
:1039400051E2E32FF0E050935700E49120FF03C0D1
:10395000E295EF703F5FEF708E2F90E0EA30C0F09D
:10396000C7968D939D932F5F243159F74FBF809158
:10397000E800877F8093E8006AE270E0CE0101965C
:103980000E9415198091E8008B778093E80057C05A
:10399000C096E7CF6091A4027091A502AE014F5F7F
:1039A0005F4F0E945018BC01892B09F448C09091C8
:1039B000E800977F9093E80089819A810E947319AB
:1039C000E1CF8038E1F58091E800877F8093E800BF
:1039D00080919B028093F10045CF811130C090917E
:1039E000A202923060F58091E800877F8093E80022
:1039F00090939B020E94061A80919B02882311F0EB
:103A000084E005C08091E30087FDFACF81E08093D8
:103A10009F020E943A1713C08091A202813079F46C
:103A200081E0933009F080E080939D021092E900DC
:103A30008091E800877F8093E8000E94061A8091B9
:103A4000E80083FF0AC08091E800877F8093E80048
:103A50008091EB0080628093EB00AA96E3E00C94E7
:103A60007E1D0895CF9380919F028823A1F0C0917D
:103A7000E900CF709091EC00892F817090FD80E873
:103A8000C82B1092E9008091E80083FD0E94EA1B98
:103A9000CF70C093E900CF910895EE0FFF1F0590FE
:103AA000F491E02D09942F923F924F925F926F9282
:103AB0007F928F929F92AF92BF92CF92DF92EF92BE
:103AC000FF920F931F93CF93DF93CDB7DEB7CA1B3F
:103AD000DB0B0FB6F894DEBF0FBECDBF09942A886A
:103AE000398848885F846E847D848C849B84AA8412
:103AF000B984C884DF80EE80FD800C811B81AA819F
:103B0000B981CE0FD11D0FB6F894DEBF0FBECDBF69
:103B1000ED010895FB01DC0104C08D910190801935
:103B200021F441505040C8F7881B990B0895FB01C0
:103B3000DC0102C001900D9241505040D8F7089529
:103B4000F999FECF92BD81BDF89A992780B5089565
:103B5000A6E1B0E044E050E00C94EA1DA8E1B0E03A
:103B600042E050E00C94EA1DDC01A40FB51F415067
:103B7000504048F0CB01840F951F2E910E94C51D27
:103B800041505040D0F70895262FF999FECF92BDAD
:103B900081BDF89A019700B4021639F01FBA20BD12
:103BA0000FB6F894FA9AF99A0FBE08950396272F44
:103BB0000E94C51D0E94C41D252F0E94C51D242FD3
:103BC0000C94C51D0196272F0E94C51D0C94C41D81
:103BD000DC01CB01FC01F999FECF06C0F2BDE1BDCD
:103BE000F89A319600B40D9241505040B8F70895BC
:103BF000F894FFCF54055405A405A40509068305D0
:103C00008305830525069606A506A506CD12411354
:103C1000D5129F12A312D912A712DD12E912B31204
:103C20003A13B712ED12BB12F1121913BF12F512AB
:103C30002013C512FB120313AB12E112AF12E512EF
:103C4000C912FF120F13291338139912D1124813F6
:103C5000D213D813C113CC13DE13E413EA130E1CD2
:103C6000361C1F1D361C1F1D691C8A1C1F1DE11CD4
:023C7000ED1C49
:103C72002802480200000100C615F916F216C616FF
:103C8200EB16E200E900EA00B500B600B700CD008D
:103C92008301CC008A0192019401210223022402B1
:103CA2002502260227022A02B300B4006F00700028
:103CB2009F01CB019F02A002818283E200E900EA18
:103CC20000B500B600B700CD008301CC008A019296
:103CD2000194012102230224022502260227022A3C
:103CE20002B300B4006F0070009F01CB019F02A0DD
:103CF200028182833332363534C69766F4F5F6F79D
:043D020031949091D7
:00000001FF
